:020000040800F2
:1000000080070020290200080716000811150008C3
:10001000051600081F040008B516000800000000BF
:100020000000000000000000000000000B160008A7
:100030008904000800000000091600080D160008D9
:10004000430200084302000843020008430200087C
:10005000430200084302000843020008430200086C
:10006000430200084302000843020008430200085C
:10007000430200084302000843020008430200084C
:100080004302000843020008430200082D04000850
:10009000210400084302000843020008430200084C
:1000A000430200084302000843020008430200081C
:1000B000430200084302000843020008430200080C
:1000C00043020008430200084302000843020008FC
:1000D00043020008430200084302000843020008EC
:1000E00043020008430200084302000843020008DC
:1000F00043020008430200084302000843020008CC
:1001000043020008430200084302000843020008BB
:1001100043020008430200084302000843020008AB
:10012000430200084302000843020008430200089B
:100130004302000843020008430200084504000887
:100140003904000843020008430200084302000883
:10015000430200084302000843020008430200086B
:10016000430200084302000843020008430200085B
:100170004302000843020008430200080000000098
:10018000430200084302000800F002F800F03CF8C7
:100190000AA090E8000C82448344AAF10107DA45E2
:1001A00001D100F031F8AFF2090EBAE80F0013F0F8
:1001B000010F18BFFB1A43F0010318472C1700006A
:1001C0004C170000103A24BF78C878C1FAD85207FB
:1001D00024BF30C830C144BF04680C6070470000C1
:1001E0000023002400250026103A28BF78C1FBD840
:1001F000520728BF30C148BF0B6070471FB501F0E0
:1002000066FB1FBD10B510BD00F0CFF81146FFF71B
:10021000F5FF01F091FA00F0EDF803B4FFF7F2FFFB
:1002200003BC00F0F5F80000094880470948004782
:10023000FEE7FEE7FEE7FEE7FEE7FEE7FEE7FEE796
:10024000FEE7FEE704480549054A064B70470000F3
:10025000A516000889010008800100208007002001
:10026000800300208003002053EA020C00F0698024
:100270002DE9F04B4FF00006002B1FBFB3FA83F5BA
:1002800003FA05F424FA05F65E4012BF1643B2FAEB
:1002900082F502FA05F4C5F120051EBF22FA05FC1D
:1002A00044EA0C04203556EA044C4FEA144418BFC3
:1002B000641C4FF000084FF00009904271EB030CF2
:1002C00039D3002919BFB1FA81F701FA07F6B0FA5C
:1002D00080F700FA07F6C7F120071EBF20FA07FCD7
:1002E00046EA0C062037B6FBF4FCA7EB0507103FE7
:1002F00007F01F0BCBF120060CFA0BFB2CFA06F6CD
:1003000044BFB3460026202FA4BF5E464FF0000B2B
:100310005BEA060C08BF4FF0010B19EB0B09ABFBB6
:10032000027C48EB0608C01B06FB02CC0BFB03CC8F
:1003300071EB0C01C1E70B46024641464846BDE859
:10034000F08B13B54FF000004FF00001AFF30080C9
:10035000BDE81C4070474FF0000200B513469446BC
:100360009646203922BFA0E80C50A0E80C50B1F10D
:100370002001BFF4F7AF090728BFA0E80C5048BF21
:100380000CC05DF804EB890028BF40F8042B08BFBF
:10039000704748BF20F8022B11F0804F18BF00F8BB
:1003A000012B7047704770477047754600F02CF876
:1003B000AE4605006946534620F00700854618B052
:1003C00020B5FFF73FFFBDE820404FF000064FF09B
:1003D00000074FF000084FF0000B21F00701AC467A
:1003E000ACE8C009ACE8C009ACE8C009ACE8C00999
:1003F0008D46704710B50446AFF300802046BDE837
:100400001040FFF70ABF0000004870471C010020A1
:1004100001491820ABBEFEE7260002007047FEE748
:10042000014800F0B0B90000CC000020014800F005
:10043000AAB90000CC000020014800F0A4B90000D7
:10044000F4000020014800F09EB90000F4000020F4
:100450000A4908B540F2FF120A6000228A60CA60A9
:1004600008220A610649020A6B460A7148710A4667
:100470000249044800F01DF808BD000040000020BB
:1004800004000020F4000020704772B6FEE790F8E8
:100490002020012A07D0022A05D0416A41F4802198
:1004A000416201207047006842690A4342610020AE
:1004B0007047F0B590F820500468A468012D05D06D
:1004C000022D03D0416A41F480215DE014F0406FB9
:1004D00001D1E50055D5C4F30164022C03D9416A6A
:1004E00041F4000150E00125A5401D608D684FF4E6
:1004F000C0739DB1CE6835434E6845EAC6050668AF
:1005000003EB0417F5514FF4C275076805EB0415AA
:100510000E697E51097D012905D009E00E88CD685C
:1005200045EA4655EBE701684E5946F480764E5150
:100530001179D579567941EA056195792D0445EA15
:10054000062529434FF4C676056806EB0416A95123
:100550001178D57841EA0561957852782D0445EAFD
:10056000022211434FF4C475026805EB0415515182
:10057000006803EB0411425842F00102425000208F
:10058000F0BD416A41F4001141620120F0BD00005C
:1005900010B590F82020012A07D0022A05D0416A20
:1005A00041F480214162012010BD3B48D0F8002277
:1005B00042F00102C0F80022D0F8002222F47C525E
:1005C000C0F80022D0F800224B6A42EA0322C0F8A9
:1005D00000220A7D02F01F0301229A40D0F81C324B
:1005E0009343C0F81C32CB69B3B9D0F80C329343B3
:1005F000C0F80C328C894B6864F31F434C6900EBE4
:10060000C404C4F840320C890B6864F31F434C697E
:1006100000EBC404C4F84432CB69012B16D1D0F8E6
:100620000C321343C0F80C320C884B6864F31F4340
:100630004C6900EBC404C4F840320C89CB6864F305
:100640001F434C6900EBC404C4F844328B69002B8F
:10065000D0F804320ED01343C0F804320B69002BDB
:10066000D0F8143208D01343C0F81432096A0129B3
:1006700004D008E09343EFE79343F5E7D0F81C126A
:100680001143C0F81C12D0F8001221F00101C0F88B
:100690000012002010BD000000640040704730B51B
:1006A00090F82040012C05D0022C03D0416A41F47F
:1006B00080215DE00468002955D02469A40754D046
:1006C0004FF4D874056804EB01142D5915F0040596
:1006D000956005682D594ED0ED08556005682C5978
:1006E00004F00204D4604FF4DA74056804EB0114DA
:1006F0002D5905F00F05156105682D59C5F307251E
:10070000956105682C59240C54614FF4DC7204681F
:1007100002EB0112A4581C700468A458240A5C70EF
:100720000468A458240C9C700468A258120EDA7055
:100730004FF4DE72046802EB0112A4581C710468C5
:10074000A458240A5C710468A458240C9C710468A1
:10075000A258120EDA71006881B1016941F02001DE
:100760000161002030BDE468A8E7416A41F400114E
:100770004162012030BD6D0D1560AFE7C16841F0E9
:100780002001C160EDE72DE9F05F05460068002417
:100790004669D0F804908768D0F80CB0D0F810A063
:1007A000D0F81880F10748D0F90714D001218160F2
:1007B000B80703D5284600F05EFA0CE0780702D5AA
:1007C0004FF4006407E0380702D54FF4805402E08C
:1007D000284600F04FFAF80516D529684FF48070C6
:1007E0008860B80503D5284600F047FA0CE0780584
:1007F00002D544F4005407E0380502D544F480449F
:1008000002E0284600F038FAF80316D529684FF4BC
:1008100080308860B80303D5284600F030FA0CE039
:10082000780302D544F4004407E0380302D544F4C9
:10083000803402E0284600F021FA300707D55FEA4D
:10084000CB6004D52968102044F40074C860700798
:100850004FF0080707D55FEA0B7004D52868C7601A
:10086000284600F0ADF9B00706D52868C0688007B3
:1008700002D0284600F0A6F9700607D55FEACA60E4
:1008800004D52968102044F480640861B00607D5B7
:100890005FEA0A7004D528680761284600F0BAF9B3
:1008A000F00606D528680069800702D0284600F0C7
:1008B000B2F9B00308D55FEAC96005D529681020F0
:1008C0004860284600F0A8F9F00307D55FEA0970F0
:1008D00004D528684760284600F0D2F9300446D590
:1008E0005FEA497040D5F00504D55FEAC87001D0D1
:1008F00044F00104B00504D55FEA887001D544F0E6
:100900000204700504D55FEA487001D544F0040480
:10091000300529D518F0700F26D008F07000402857
:1009200015D006DC102809D020280AD0302816D18E
:100930000AE050280ED0602811D10EE044F00804DF
:100940000DE044F010040AE044F0200407E044F015
:10095000400404E044F0800401E044F4807428681A
:10096000816921F070018161296804204860002CB0
:1009700005D0686A204368622846FFF78FFEBDE80D
:10098000F09F70B5040003D094F8200010B104E08B
:10099000012070BD204600F081F82068016841F018
:1009A0000101016000F07EFA0546052604E000F032
:1009B00079FA401B0A2811D820684068C007F6D091
:1009C0002068016821F00201016000F06BFA054621
:1009D0000BE000F067FA401B0A2806D9606A40F471
:1009E0000030606284F82060D2E7206840688007A9
:1009F000EFD4207E0128206801683DD021F08001DD
:100A00000160607E01282068016838D021F0400133
:100A10000160A07E01282068016833D021F0200108
:100A20000160E07E0128206801682ED041F01001AD
:100A30000160207F01282068016829D021F0080189
:100A40000160607F01282068016824D021F0040142
:100A50000160D4E902010843D4E9041211430843B8
:100A60006168491E08432168C86100206062012056
:100A700084F82000002070BD41F08001C0E741F003
:100A80004001C5E741F02001CAE721F01001CFE79E
:100A900041F00801D4E741F00401D9E72DE9F04322
:100AA00087B0044614216846FFF755FC404B414887
:100AB000DFF8F8801968D4F800C03E4A0225032602
:100AC0000927DFF8F49010300024491CC4452CD1CC
:100AD0001960012907D1016841F0007101600068C7
:100AE00000F000700590106840F00200106010687F
:100AF00002AB00F0020005904FF44070CDE9000514
:100B000083E8D0006946484600F0CEF8002211463E
:100B1000132000F035FA132000F024FA00221146C9
:100B2000142000F02DFA14203AE0DFF89080C4453C
:100B300038D1D0F800C04CF0806CC0F800C0D0F8BC
:100B400000C001290CF0806CCDF814C0196007D1E9
:100B5000016841F000710160006800F000700590CC
:100B6000106840F002001060106802AB00F0020054
:100B700005906020CDE9000583E8D000694648462D
:100B800000F092F8002211463F2000F0F9F93F20D2
:100B900000F0E8F900221146402000F0F1F9402071
:100BA00000F0E0F907B0BDE8F08300000064004009
:100BB0002C00002030380240000402400068004051
:100BC0007047000000B589B007AB6A460021FFF707
:100BD00066FD0E480168491C01600098A0F500718F
:100BE000073911D10A4801880181BDF81C1049BAA2
:100BF0000180BDF81E1049BA4180BDF8201049BAE5
:100C000081809DF82210817109B000BD0000002094
:100C100058000020704770477047000070B50446C8
:100C200090F82000012804D0606A40F4002060623F
:100C300018E0022084F820002068016821F00101FA
:100C4000016000F02FF905460EE000BF00F02AF920
:100C5000401B0A2808D9606A40F400306062052011
:100C600084F82000012070BD20684068C007EDD1E5
:100C7000606270BD7047704770477047704770473B
:100C80007047000070B5044600F00CF90546601C82
:100C900002D004480078044400F004F9401BA0424C
:100CA000FAD370BD300000202DE9F84FDFF8BCA169
:100CB0000022012503264FF00F090AF1040BAAF1C7
:100CC000040E00BF0B6805FA02F42340A34270D162
:100CD0000F7907F00307012F01D0022F16D1876883
:100CE0004FEA420806FA08FC27EA0C07D1F80CC0C4
:100CF0000CFA08FC4CEA070CC0F808C04768A74388
:100D00000C79C4F3001494403C4344600C79E443F0
:100D1000A4070AD0C4684FEA420C06FA0CF7BC4399
:100D20008F6807FA0CF72743C7600C7904F00304B7
:100D3000022C12D1D40800EB840CDCF820405707B9
:100D4000FF0E09FA07F824EA0804D1F8108008FA1F
:100D500007F848EA0408CCF8208004684FEA420CFF
:100D600006FA0CF7BC430F7907F0030707FA0CF7F4
:100D7000274307604C6814F4403F70D03C4C276810
:100D800047F480472760246822F0030704F4804476
:100D90000094384C07EB040CDCF8084897074FEA3E
:100DA000177809FA08F7BC43334FB84202D100273D
:100DB00024E054E0314FB84201D101271EE0304F0A
:100DC000B84201D1022719E02E4FB84201D10327C2
:100DD00014E02D4FB84201D104270FE02B4FB84249
:100DE00001D105270AE02A4FB84201D1062705E0C4
:100DF000284FB84201D1072700E0082707FA08F773
:100E00002743CCF80878DAF800405746D1F804C0F8
:100E10009C435FEACC2C00D51C433C60DBF80040CF
:100E20005F46D1F804C09C435FEA8C2C00D51C437C
:100E30003C60DEF800407746D1F804C09C435FEA8E
:100E40008C3C00D51C433C60084F083F3C68D1F8FF
:100E500004C09C435FEACC3C00D51C433C60521C60
:100E6000102AFFF42FAFBDE8F88F0000083C0140C6
:100E700044380240003001400000024000040240BB
:100E800000080240000C0240001002400014024022
:100E900000180240001C02400AB181617047090439
:100EA000FBE7000001488068704700003000002028
:100EB0000248816802781144816070473000002048
:100EC0000B4810B5016841F400710160016841F4FC
:100ED00080610160016841F480710160032000F0CD
:100EE0006FF80F2000F006F800F024F8002010BD85
:100EF000003C024070B50D4D04464FF47A712878DD
:100F0000B1FBF0F00A490968B1FBF0F000F0ECFA2F
:100F100048B9102C07D200222146501E00F030F8AC
:100F200000206C6070BD012070BD0000300000200A
:100F30003C0000200A4808B5016841F48041016086
:100F4000006800F4804000900548001F016841F0EF
:100F500080510160006800F08050009008BD0000E2
:100F600044380240002809DB00F01F0201219140B3
:100F70004009800000F1E020C0F800117047000037
:100F8000F0B40E4B1B680C46C3F30223C3F10705F4
:100F9000042D00D90425191D072901D2002300E0E2
:100FA000DB1E012606FA05F1491E214099409E40AC
:100FB000761E16403143F0BC00F07DBB0CED00E026
:100FC000064900F0070208684FF6FF03184040EAA0
:100FD0000220034A10430860704700000CED00E057
:100FE0000000FA052DE9F0470E46050065D0DFF850
:100FF0001481D8F80000F7B200F00700B04207D221
:1010000088F80070D8F8000000F00700B04254D112
:1010100028683D4C810712D5400703D5206840F46D
:10102000E05020602878000703D5206840F4604035
:1010300020602068A96820F0F0000843206028782C
:10104000C0072DD0304968680839012812D002281D
:1010500013D0032811D00968890700292DDA2168E7
:1010600021F0030101432160FFF71CFF814641F29B
:10107000883A0EE009688903EFE709688901ECE71F
:10108000FFF710FFA0EB0901514502D90320BDE88D
:10109000F0872068696800F00C00B0EB810FEFD199
:1010A000D8F80010404601F00701B14207D9077097
:1010B000006800F00700B04201D00120E7E728787F
:1010C000400705D52068E96820F4E0500843206017
:1010D0002878000706D52068296920F4604040EA96
:1010E000C100206000F018F82168084AC1F303111C
:1010F000515CC8400649086006480068FFF7FAFEE0
:101100000020C4E7003C024008380240D81800081C
:101110003C00002034000020154810B5006810F095
:101120000C02144813D01449042A0FD0082A0ED1F7
:101130000F4C241F2268236802F03F025B0207D590
:101140002068C0F38810A0FB010106E0084610BD2E
:101150002168C1F38811A1FB00010023FFF784F887
:101160002168C1F30141491C4900B0FBF1F010BDF9
:10117000083802400024F400001BB7002DE9F84FA6
:1011800004006ED02078DFF84C93C007A9F1040565
:101190004AD009F104000168C1F38101012908D096
:1011A0000068C0F3810002280AD1D9F8000040028B
:1011B00006D52868800337D560680028E1D033E081
:1011C0006068B0F5803F10D0B0F5A02F286810D02F
:1011D00020F480302860286820F48020286060682F
:1011E000A8B1FFF75FFE06460DE0286840F48030A6
:1011F000F4E740F480202860F7E700BFFFF752FED5
:10120000801B642873D828688003F7D50CE0FFF7AB
:1012100049FE064605E000BFFFF744FE801B642838
:10122000F0D828688003F7D42078DFF8AC828007F4
:101230004FF0000A3ED5A748001D016811F00C0FC1
:1012400008D00068C0F3810002280BD1D9F8000053
:10125000400207D42868800716D5E068012800D12D
:1012600012E033E1E068B8B10120C8F80000FFF7F0
:1012700019FE064605E000BFFFF714FE801B02289A
:10128000C0D828688007F7D52868216920F0F800C1
:1012900040EAC10028600DE0C8F800A0FFF702FE98
:1012A000064604E0FFF7FEFD801B02281FD82868D1
:1012B0008007F7D42078000722D5864F87486169D8
:1012C000703771B101210160FFF7ECFD064604E0C3
:1012D000FFF7E8FD801B022809D838688007F7D59A
:1012E0000EE0C0F800A0FFF7DDFD064605E082E055
:1012F000FFF7D8FD801B02287DD838688007F7D417
:101300002078400768D5DFF8CCB100270BF13C0B03
:10131000DBF80000C0000BD4DBF8001041F0805176
:10132000CBF80010DBF80000012700F0805000909F
:101330006B4E3068C00510D4306840F48070306067
:10134000FFF7B0FD009005E0FFF7ACFD0099401AF3
:10135000022850D83068C005F6D55E4EA0686C36BD
:1013600001280FD00528306810D020F0010030602F
:10137000306820F004003060A068B8B1FFF792FD3B
:1013800000900FE0306840F00100F4E740F0040006
:101390003060F7E7FFF786FD0099411A41F2883087
:1013A000814266D830688007F4D50EE0FFF77AFDF9
:1013B000009007E0FFF776FD0099411A41F288306E
:1013C000814256D830688007F4D42FB1DBF8001082
:1013D00021F08051CBF80010A069C8B33D49091D28
:1013E0000968C1F3810102294AD00228504607D07A
:1013F000C8F8600000E03CE0FFF754FD04463BE025
:101400004746C8F86000FFF74DFD064605E000BFFF
:10141000FFF748FD801B02282BD828688001F7D4ED
:10142000D4E907010843A16A2E4A490802EB0141A9
:10143000626A41EA8211084394F82C1040EA016183
:10144000C9F8001001203866FFF72CFD044606E0BD
:101450003EE000BFFFF726FD001B022809D82868E0
:101460008001F7D534E000BFFFF71CFD001B022808
:1014700002D90320BDE8F88F28688001F4D427E062
:101480000128F7D0D9F80000E26900F48001914208
:101490001CD1226A00F03F01914217D147F6C0717A
:1014A000626A0140B1EB821F10D1A26A4FF0FF3394
:1014B00000F4403103EB5202B1EB024F06D194F835
:1014C0002C1000F07060B0EB016F01D00120D1E76B
:1014D0000020CFE70438024000004742800E474218
:1014E000007000400000FFFF10B5401EB0F1807F8B
:1014F00001D3012010BD4FF0E02460610F2160177F
:1015000000F0D9F80020A06107202061002010BD64
:10151000FEE700000D4810B50B4901601021416045
:1015200000218160C160016141610176417681766F
:10153000C17601774177FFF724FA002803D0BDE890
:101540001040FEF7A2BF10BD00640040CC00002098
:101550000F4810B50D4901600321416000214FF48F
:1015600000228160C0E903124FF44012426101760B
:1015700041768176C17601774177FFF702FA00283C
:1015800003D0BDE81040FEF780BF10BD00680040EA
:10159000F400002070B586B014216846FEF7DBFE2B
:1015A00016480024016841F002010160016801F061
:1015B00002010591016841F001010160016801F03B
:1015C00001010591016841F08001016000680C4E45
:1015D00000F080004FF480650590002229463046D7
:1015E000FFF75AFC01200095CDE901046946304619
:1015F0000394FFF759FB06B070BD0000303802407D
:10160000001C0240FEE7FEE770477047FFF750BC42
:1016100030B593B030216846FEF79DFE14210CA82A
:10162000FEF799FE1D480025016841F080510160D8
:10163000006800F0805011901948016841F4804121
:1016400001600068022400F48040119001200090A5
:10165000000401908001CDE9064006200890A820F2
:10166000CDE9090404200B906846FFF787FD08B117
:1016700072B6FEE70CA90F2081E831004FF4A050AC
:101680000F904FF48050109005210CA8FFF7AAFC92
:10169000002801D072B6FEE713B030BD40380240DA
:1016A000007000400248016841F470010160704719
:1016B00088ED00E0FEE70907090E002804DB00F1D1
:1016C000E02080F80014704700F00F0000F1E020E7
:1016D00080F8141D70470000DFED060A0648B0EEE2
:1016E000001A60EE200A90ED000A20EE011A80EE4A
:1016F000810A704700F8FF450C00002000B58BB050
:1017000001220E2100200792CDE9051003900490DC
:10171000CDE9082100900190029069460548FEF746
:1017200037FF02210348FEF7B2FE0248FFF776FAC0
:101730000BB000BDF40000202DED028BFFF7C0FBC5
:10174000FFF766FFFFF726FFFFF7E4FEFFF700FF56
:10175000FFF7D4FF9FED2F8ADFED2D8A9FED2B2A17
:10176000B0EE481AF0EE681AF0EE480AB2EE040A3B
:10177000294800F0A9F828489FED282AF0EE681AB9
:10178000B0EE481AF0EE480AB2EE040A343000F027
:101790009BF8012291022248FFF77EFB214C94ED39
:1017A000030AFFF799FF204D84ED030AB5F9020003
:1017B00000EE100AB8EEC00A84ED020A288800EE96
:1017C000100A1548F8EE400AC4ED050A94ED030A24
:1017D00000F02CF8104884ED040AF0EE400A94ED75
:1017E000000A343000F022F884ED010AB1EE400A1C
:1017F000BDEEC00A10EE100A00B2FEF729FEA06985
:10180000401CA0610120FFF73DFACFE70000FA4538
:1018100000004842000000006400002000803B45BA
:10182000001C0240100000205800002080ED050A36
:10183000C0ED060A90ED071A30EE600A80ED081A36
:1018400080ED070AD0ED000A60EE801AC0ED091A9B
:10185000D0ED0A0A90ED012A42EE000A30EE410A6C
:10186000C0ED0A0A90ED021A20EE011A80ED0B1A63
:1018700090ED030AF4EEC00AF1EE10FA09DCB1EEC5
:10188000400AF4EEC00AF1EE10FA02D390ED0A0A13
:1018900001E080ED0A0A31EE800A30EE010A80EDA7
:1018A0000C0AD0ED040AB4EEE00AF1EE10FA06DC00
:1018B000F1EE600AB4EEE00AF1EE10FA01D2C0EDEA
:1018C0000C0A90ED0C0A704780EC050A70474FF047
:1018D0004070E1EE100A70470000000000000000B8
:1018E0000102030406070809081900080000002087
:1018F00040000000C4010008481900084000002012
:1019000040070000E00100080000000000000000A7
:1019100000000000DA0F4940000000000000000055
:1019200000000000DA0F4940000000000000000045
:101930000000000000000000010000001000000096
:08194000000000000024F40087
:040000050800018965
:00000001FF
