:020000040800F2
:100000005809002029020008AB200008211F000821
:10001000A92000081F040008352500080000000082
:10002000000000000000000000000000AF200008F9
:100030007507000800000000AD200008B12000088E
:10004000430200084302000843020008430200087C
:10005000430200084302000843020008430200086C
:10006000430200084302000843020008430200085C
:1000700089040008430200089504000843020008B0
:100080004302000843020008430200082D04000850
:10009000210400084302000843020008430200084C
:1000A000430200084302000843020008430200081C
:1000B000430200084302000843020008430200080C
:1000C00043020008430200084302000843020008FC
:1000D0004302000843020008430200088523000889
:1000E00043020008430200084302000843020008DC
:1000F00043020008430200084302000843020008CC
:1001000043020008430200084302000843020008BB
:1001100043020008430200084302000843020008AB
:10012000430200084302000843020008430200089B
:100130004302000843020008430200084504000887
:100140003904000843020008430200084302000883
:10015000430200084302000843020008430200086B
:10016000430200084302000843020008430200085B
:100170004302000843020008430200080000000098
:10018000430200084302000800F002F800F03CF8C7
:100190000AA090E8000C82448344AAF10107DA45E2
:1001A00001D100F031F8AFF2090EBAE80F0013F0F8
:1001B000010F18BFFB1A43F001031847482A00003B
:1001C000682A0000103A24BF78C878C1FAD85207CC
:1001D00024BF30C830C144BF04680C6070470000C1
:1001E0000023002400250026103A28BF78C1FBD840
:1001F000520728BF30C148BF0B6070471FB502F0DF
:10020000ECFC1FBD10B510BD00F0CFF81146FFF794
:10021000F5FF02F035FA00F0EDF803B4FFF7F2FF56
:1002200003BC00F0F5F80000094880470948004782
:10023000FEE7FEE7FEE7FEE7FEE7FEE7FEE7FEE796
:10024000FEE7FEE704480549054A064B70470000F3
:10025000492100088901000858030020580900209E
:10026000580500205805002053EA020C00F0698070
:100270002DE9F04B4FF00006002B1FBFB3FA83F5BA
:1002800003FA05F424FA05F65E4012BF1643B2FAEB
:1002900082F502FA05F4C5F120051EBF22FA05FC1D
:1002A00044EA0C04203556EA044C4FEA144418BFC3
:1002B000641C4FF000084FF00009904271EB030CF2
:1002C00039D3002919BFB1FA81F701FA07F6B0FA5C
:1002D00080F700FA07F6C7F120071EBF20FA07FCD7
:1002E00046EA0C062037B6FBF4FCA7EB0507103FE7
:1002F00007F01F0BCBF120060CFA0BFB2CFA06F6CD
:1003000044BFB3460026202FA4BF5E464FF0000B2B
:100310005BEA060C08BF4FF0010B19EB0B09ABFBB6
:10032000027C48EB0608C01B06FB02CC0BFB03CC8F
:1003300071EB0C01C1E70B46024641464846BDE859
:10034000F08B13B54FF000004FF00001AFF30080C9
:10035000BDE81C4070474FF0000200B513469446BC
:100360009646203922BFA0E80C50A0E80C50B1F10D
:100370002001BFF4F7AF090728BFA0E80C5048BF21
:100380000CC05DF804EB890028BF40F8042B08BFBF
:10039000704748BF20F8022B11F0804F18BF00F8BB
:1003A000012B7047704770477047754600F02CF876
:1003B000AE4605006946534620F00700854618B052
:1003C00020B5FFF73FFFBDE820404FF000064FF09B
:1003D00000074FF000084FF0000B21F00701AC467A
:1003E000ACE8C009ACE8C009ACE8C009ACE8C00999
:1003F0008D46704710B50446AFF300802046BDE837
:100400001040FFF70ABF000000487047F4020020C8
:1004100001491820ABBEFEE7260002007047FEE748
:10042000014800F026BB000058010020014800F000
:1004300020BB000058010020014800F01ABB00005A
:1004400080010020014800F014BB00008001002062
:100450000A4908B540F2FF120A6000228A60CA60A9
:1004600008220A610649020A6B460A7148710A4667
:100470000249044800F093F908BD00006C00002018
:100480000400002080010020014800F0CBBD0000E6
:10049000EC010020014800F0C5BD00004C02002026
:1004A0002DE9F04F85680024099E802D18D0894DD4
:1004B000C563894D456490F83450012D15D0012550
:1004C00080F8345090F83550012D10D0002180F87C
:1004D00034100224002180F834102046BDE8F08F4B
:1004E0004FF4807141650120F8E70220F6E702250C
:1004F00080F835500025456505682F6847F480274A
:100500002F6005682B6103685E608368402B036879
:100510002AD099600168CA60714D704E704FDFF843
:10052000BC81DFF8B891DFF8B8A1DFF8B4B1EA1404
:10053000DFF8A8E10168183630379302A9F14809BD
:100540000AF1600A0BF1180BAEF1300E4FF0006C9F
:1005500041452DD9A94205D0494503D0514501D087
:10056000B14205D1202220E09A600268D160D3E731
:1005700059451AD0714518D0594D7835A94214D033
:10058000564D3035A94210D0B9420BD0534A183AD3
:10059000914207D0524A9032914203D04F4A48329A
:1005A000914201D11A4600E062464C494C392EE096
:1005B000DFF82C8108F1A80841452AD9A94205D0C5
:1005C000494503D0514501D0B14201D120221CE060
:1005D00059451AD0714518D0414D7835A94214D0EB
:1005E0003E4D3035A94210D0B9420BD03B4A183AA3
:1005F000914207D03A4A9032914203D0374A48326A
:10060000914201D11A4600E06246344950390A60ED
:100610005AE0DFF8CC8008F1480841452AD9A942C0
:1006200005D0494503D0514501D0B14201D1202226
:100630001CE059451AD0714518D0294D7835A9428A
:1006400014D0264D3035A94210D0B9420BD0234AE0
:10065000183A914207D0224A9032914203D01F4A61
:100660004832914201D11A4600E062461C491039D5
:10067000CA6029E0A94205D0494503D0514501D0BF
:10068000B14201D120221CE059451AD0714518D041
:10069000134D7835A94214D0104D3035A94210D0F1
:1006A000B9420BD00D4A183A914207D00C4A903209
:1006B000914203D0094A4832914201D11A4600E0E2
:1006C0006246074910398A6001680A6842F00102EF
:1006D0000A60FFE6392600085D26000858640240DB
:1006E0001060024001681823CAB2103AB2FBF3F25C
:1006F000054B6FF30901032A9B5CC36500D9091DF3
:100700008165084670470000E42B000810B50146DB
:1007100000208B698A6A4FF0C07453B1B3F5005F53
:1007200015D072B1012A0CD0022A0AD0032A09D1AD
:1007300004E01AB1012A06D0022A03D1C96AC9010C
:1007400000D5012010BDC96AA142FAD010BD002A0F
:10075000F7D0012AF2D0022AF3D0032AF3D010BD39
:1007600001680A68D20604D5C968C90601D502F035
:100770006DB87047704772B6FEE790F82020012AE6
:1007800007D0022A05D0416A41F48021416201204C
:100790007047006842690A43426100207047F0B523
:1007A00090F820500468A468012D05D0022D03D0D4
:1007B000416A41F480215DE014F0406F01D1E50011
:1007C00055D5C4F30164022C03D9416A41F40001F8
:1007D00050E00125A5401D608D684FF4C0739DB1A8
:1007E000CE6835434E6845EAC605066803EB041734
:1007F000F5514FF4C275076805EB04150E697E517B
:10080000097D012905D009E00E88CD6845EA4655E5
:10081000EBE701684E5946F480764E511179D5794F
:10082000567941EA056195792D0445EA0625294363
:100830004FF4C676056806EB0416A9511178D578F1
:1008400041EA0561957852782D0445EA0222114368
:100850004FF4C475026805EB04155151006803EBB1
:100860000411425842F0010242500020F0BD416A9A
:1008700041F4001141620120F0BD000010B590F874
:100880002020012A07D0022A05D0416A41F48021A4
:100890004162012010BD3B48D0F8002242F0010225
:1008A000C0F80022D0F8002222F47C52C0F80022C6
:1008B000D0F800224B6A42EA0322C0F800220A7DE7
:1008C00002F01F0301229A40D0F81C329343C0F873
:1008D0001C32CB69B3B9D0F80C329343C0F80C3258
:1008E0008C894B6864F31F434C6900EBC404C4F863
:1008F00040320C890B6864F31F434C6900EBC4045D
:10090000C4F84432CB69012B16D1D0F80C32134312
:10091000C0F80C320C884B6864F31F434C6900EB41
:10092000C404C4F840320C89CB6864F31F434C699B
:1009300000EBC404C4F844328B69002BD0F80432B5
:100940000ED01343C0F804320B69002BD0F81432D8
:1009500008D01343C0F81432096A012904D008E012
:100960009343EFE79343F5E7D0F81C121143C0F827
:100970001C12D0F8001221F00101C0F80012002072
:1009800010BD000000640040704730B590F8204072
:10099000012C05D0022C03D0416A41F480215DE096
:1009A0000468002955D02469A40754D04FF4D874A2
:1009B000056804EB01142D5915F0040595600568D0
:1009C0002D594ED0ED08556005682C5904F00204ED
:1009D000D4604FF4DA74056804EB01142D5905F066
:1009E0000F05156105682D59C5F307259561056843
:1009F0002C59240C54614FF4DC72046802EB011290
:100A0000A4581C700468A458240A5C700468A45894
:100A1000240C9C700468A258120EDA704FF4DE7237
:100A2000046802EB0112A4581C710468A458240A3B
:100A30005C710468A458240C9C710468A258120EBE
:100A4000DA71006881B1016941F020010161002083
:100A500030BDE468A8E7416A41F400114162012019
:100A600030BD6D0D1560AFE7C16841F02001C16078
:100A7000EDE72DE9F05F0546006800244669D0F8EF
:100A800004908768D0F80CB0D0F810A0D0F8188087
:100A9000F10748D0F90714D001218160B80703D5C8
:100AA000284600F05EFA0CE0780702D54FF40064A7
:100AB00007E0380702D54FF4805402E0284600F0E2
:100AC0004FFAF80516D529684FF480708860B8058C
:100AD00003D5284600F047FA0CE0780502D544F427
:100AE000005407E0380502D544F4804402E028466B
:100AF00000F038FAF80316D529684FF48030886082
:100B0000B80303D5284600F030FA0CE0780302D58C
:100B100044F4004407E0380302D544F4803402E092
:100B2000284600F021FA300707D55FEACB6004D5EC
:100B30002968102044F40074C86070074FF008075B
:100B400007D55FEA0B7004D52868C760284600F017
:100B5000ADF9B00706D52868C068800702D02846DE
:100B600000F0A6F9700607D55FEACA6004D52968C7
:100B7000102044F480640861B00607D55FEA0A706B
:100B800004D528680761284600F0BAF9F00606D5B2
:100B900028680069800702D0284600F0B2F9B00347
:100BA00008D55FEAC96005D5296810204860284645
:100BB00000F0A8F9F00307D55FEA097004D52868AA
:100BC0004760284600F0D2F9300446D55FEA497004
:100BD00040D5F00504D55FEAC87001D044F00104A7
:100BE000B00504D55FEA887001D544F002047005B1
:100BF00004D55FEA487001D544F00404300529D5D6
:100C000018F0700F26D008F07000402815D006DCD0
:100C1000102809D020280AD0302816D10AE0502800
:100C20000ED0602811D10EE044F008040DE044F02D
:100C300010040AE044F0200407E044F0400404E01B
:100C400044F0800401E044F480742868816921F054
:100C500070018161296804204860002C05D0686A11
:100C6000204368622846FFF78FFEBDE8F09F70B50D
:100C7000040003D094F8200010B104E0012070BDFE
:100C8000204600F081F82068016841F00101016010
:100C900000F012FC0546052604E000F00DFC401BA8
:100CA0000A2811D820684068C007F6D0206801687B
:100CB00021F00201016000F0FFFB05460BE000F0AF
:100CC000FBFB401B0A2806D9606A40F400306062D2
:100CD00084F82060D2E7206840688007EFD4207E47
:100CE0000128206801683DD021F080010160607E0C
:100CF00001282068016838D021F040010160A07E01
:100D000001282068016833D021F020010160E07ED5
:100D10000128206801682ED041F010010160207F79
:100D200001282068016829D021F008010160607F56
:100D300001282068016824D021F004010160D4E971
:100D400002010843D4E90412114308436168491EB3
:100D500008432168C86100206062012084F82000F7
:100D6000002070BD41F08001C0E741F04001C5E7BF
:100D700041F02001CAE721F01001CFE741F008015E
:100D8000D4E741F00401D9E72DE9F04387B00446E8
:100D900014216846FFF7DFFA404B4148DFF8F8803E
:100DA0001968D4F800C03E4A022503260927DFF857
:100DB000F49010300024491CC4452CD1196001293D
:100DC00007D1016841F000710160006800F0007017
:100DD0000590106840F002001060106802AB00F04F
:100DE000020005904FF44070CDE9000583E8D00083
:100DF0006946484600F062FA00221146132000F0CE
:100E0000C9FB132000F0B8FB00221146142000F0AB
:100E1000C1FB14203AE0DFF89080C44538D1D0F807
:100E200000C04CF0806CC0F800C0D0F800C00129B0
:100E30000CF0806CCDF814C0196007D1016841F046
:100E400000710160006800F000700590106840F0CB
:100E500002001060106802AB00F0020005906020F4
:100E6000CDE9000583E8D0006946484600F026FA3F
:100E7000002211463F2000F08DFB3F2000F07CFB5C
:100E800000221146402000F085FB402000F074FB5A
:100E900007B0BDE8F0830000006400402C00002093
:100EA00030380240000402400068004070470000F3
:100EB00000B589B007AB6A460021FFF766FD0E4812
:100EC0000168491C01600098A0F50071073911D133
:100ED0000A4801880181BDF81C1049BA0180BDF89B
:100EE0001E1049BA4180BDF8201049BA81809DF892
:100EF0002210817109B000BD000000208400002094
:100F0000704770477047000070B5044690F82000A5
:100F1000012804D0606A40F40020606218E00220DA
:100F200084F820002068016821F00101016000F0D0
:100F3000C3FA05460EE000BF00F0BEFA401B0A28C7
:100F400008D9606A40F400306062052084F820000F
:100F5000012070BD20684068C007EDD1606270BD9F
:100F600070477047704770477047704770472DE96A
:100F7000F0410446876D00F09FFA064694F835006C
:100F80000025022806D08020606584F834500120B6
:100F9000BDE8F0812068016821F016010160206839
:100FA000416921F080014161206C08B9A06C20B139
:100FB0002068016821F0080101602068016821F0C3
:100FC000010101600CE000F077FA801B052807D9C9
:100FD00020206065032084F8350084F83450D7E77A
:100FE00020680068C007EED194F85C103F2088406C
:100FF000B860012084F8350084F834500020C7E739
:1010000090F83510022903D08021416501207047F6
:10101000052180F835100068016821F001010160A8
:10102000002070472DE9F84304464FF00009CDF841
:10103000009063484FF41651A56D0068B0FBF1F7BE
:101040002E6894F85C10082000FA01F131420FD0AC
:1010500021680A6852070BD50A6822F004020A6068
:1010600094F85C108840A860606D40F001006065F5
:1010700094F85C104FF0010808FA01F0304208D0F3
:1010800021684969090604D5A860606D40F0020036
:10109000606594F85C1004208840304208D02168D4
:1010A0000968890704D5A860606D40F00400606598
:1010B00094F85C1010208840304218D021680968EC
:1010C000090714D5A86020680168490304D50068A1
:1010D000000308D5A16C07E00168C90503D40168C5
:1010E00021F008010160216C09B12046884794F87D
:1010F0005C1020208840304231D021680968C90640
:101100002DD5A86094F8350005282068016806D020
:10111000490347D5006800031DD4616C1CE021F031
:10112000160101602068416921F080014161206C55
:1011300008B9A06C20B12068016821F008010160A5
:1011400094F85C103F208840A86084F8358084F8CB
:101150003490216D1FE0E16B09B120468847606D36
:1011600000282BD0606DC00714D0052084F835000E
:101170002068016821F0010101600098401C009086
:10118000B84203D820680068C007F6D184F83580DB
:1011900084F83490E16C002910D001B02046BDE8FD
:1011A000F04308470168C905D5D4016821F0100152
:1011B000016084F8358084F83490CCE7BDE8F8838A
:1011C0003C0000202DE9F041044600F075F9064688
:1011D0005CB1022084F83500002584F83450206882
:1011E000016821F0010101600DE00120BDE8F081FE
:1011F00000F062F9801B052805D9202060650320D6
:1012000084F83500F2E720680068C007F0D1226852
:10121000116820480140D4E901031843D4E903369A
:101220003343184363691843A3691843E3691843B8
:10123000236A18430843616A042903D1D4E90B13D4
:1012400019430843106020684069666A20F007016E
:1012500030460E43012704280CD1A06A0643E06AF9
:1012600040B12046FFF752FA20B14020606584F873
:101270003570BAE7206846612046FFF733FA94F8E4
:101280005C203F2191408160656584F835700020C5
:10129000ACE700003F8010F070B5044600F00CF998
:1012A0000546601C02D004480078044400F004F9AC
:1012B000401BA042FAD370BD300000202DE9F84F4A
:1012C000DFF8BCA10022012503264FF00F090AF127
:1012D000040BAAF1040E00BF0B6805FA02F42340C8
:1012E000A34270D10F7907F00307012F01D0022F1D
:1012F00016D187684FEA420806FA08FC27EA0C076D
:10130000D1F80CC00CFA08FC4CEA070CC0F808C075
:101310004768A7430C79C4F3001494403C434460ED
:101320000C79E443A4070AD0C4684FEA420C06FAD9
:101330000CF7BC438F6807FA0CF72743C7600C799A
:1013400004F00304022C12D1D40800EB840CDCF866
:1013500020405707FF0E09FA07F824EA0804D1F8DD
:10136000108008FA07F848EA0408CCF820800468DE
:101370004FEA420C06FA0CF7BC430F7907F003075B
:1013800007FA0CF7274307604C6814F4403F70D00D
:101390003C4C276847F480472760246822F0030705
:1013A00004F480440094384C07EB040CDCF8084843
:1013B00097074FEA177809FA08F7BC43334FB8424A
:1013C00002D1002724E054E0314FB84201D1012777
:1013D0001EE0304FB84201D1022719E02E4FB8422B
:1013E00001D1032714E02D4FB84201D104270FE0AB
:1013F0002B4FB84201D105270AE02A4FB84201D14C
:10140000062705E0284FB84201D1072700E008274A
:1014100007FA08F72743CCF80878DAF8004057466F
:10142000D1F804C09C435FEACC2C00D51C433C603F
:10143000DBF800405F46D1F804C09C435FEA8C2C87
:1014400000D51C433C60DEF800407746D1F804C06C
:101450009C435FEA8C3C00D51C433C60084F083F2E
:101460003C68D1F804C09C435FEACC3C00D51C43E7
:101470003C60521C102AFFF42FAFBDE8F88F00002B
:10148000083C014044380240003001400000024066
:101490000004024000080240000C0240001002401C
:1014A0000014024000180240001C02400AB1816191
:1014B00070470904FBE7000001488068704700009E
:1014C0003000002002488168027811448160704732
:1014D000300000200B4810B5016841F40071016034
:1014E000016841F480610160016841F4807101602C
:1014F000032000F06FF80F2000F006F800F024F849
:10150000002010BD003C024070B50D4D04464FF464
:101510007A712878B1FBF0F00A490968B1FBF0F064
:1015200000F00CFB48B9102C07D200222146501EB7
:1015300000F030F800206C6070BD012070BD00002C
:10154000300000203C0000200A4808B5016841F442
:1015500080410160006800F4804000900548001F51
:10156000016841F080510160006800F080500090F7
:1015700008BD000044380240002809DB00F01F02CB
:10158000012191404009800000F1E020C0F80011E5
:1015900070470000F0B40E4B1B680C46C3F30223E7
:1015A000C3F10705042D00D90425191D072901D20F
:1015B000002300E0DB1E012606FA05F1491E21404A
:1015C00099409E40761E16403143F0BC00F0B3BFF8
:1015D0000CED00E0064900F0070208684FF6FF0333
:1015E000184040EA0220034A104308607047000098
:1015F0000CED00E00000FA052DE9F0470E4605006D
:1016000065D0DFF81481D8F80000F7B200F00700C9
:10161000B04207D288F80070D8F8000000F0070048
:10162000B04254D128683D4C810712D5400703D5FC
:10163000206840F4E05020602878000703D5206837
:1016400040F4604020602068A96820F0F000084362
:1016500020602878C0072DD03049686808390128F3
:1016600012D0022813D0032811D009688907002955
:101670002DDA216821F0030101432160FFF71CFFEF
:10168000814641F2883A0EE009688903EFE709686C
:101690008901ECE7FFF710FFA0EB0901514502D9E2
:1016A0000320BDE8F0872068696800F00C00B0EB0B
:1016B000810FEFD1D8F80010404601F00701B14288
:1016C00007D90770006800F00700B04201D0012080
:1016D000E7E72878400705D52068E96820F4E0505E
:1016E000084320602878000706D52068296920F47F
:1016F000604040EAC100206000F038F82168084AE4
:10170000C1F30311515CC8400649086006480068EF
:10171000FFF7FAFE0020C4E7003C02400838024010
:10172000EC2B00083C000020340000200448054950
:1017300000680968044AC1F38221515CC8407047BF
:101740003C00002008380240FC2B000804480549F2
:1017500000680968044AC1F34231515CC8407047CF
:101760003C00002008380240FC2B0008154810B54A
:10177000006810F00C02144813D01449042A0FD04A
:10178000082A0ED10F4C241F2268236802F03F0262
:101790005B0207D52068C0F38810A0FB010106E0BA
:1017A000084610BD2168C1F38811A1FB0001002388
:1017B000FEF75AFD2168C1F30141491C4900B0FB05
:1017C000F1F010BD083802400024F400001BB700FF
:1017D0002DE9F84F04006ED02078DFF84C93C00755
:1017E000A9F104054AD009F104000168C1F381019F
:1017F000012908D00068C0F3810002280AD1D9F875
:101800000000400206D52868800337D560680028AC
:10181000E1D033E06068B0F5803F10D0B0F5A02F84
:10182000286810D020F480302860286820F48020B8
:1018300028606068A8B1FFF73FFE06460DE0286803
:1018400040F48030F4E740F480202860F7E700BFE0
:10185000FFF732FE801B642873D828688003F7D511
:101860000CE0FFF729FE064605E000BFFFF724FE67
:10187000801B6428F0D828688003F7D42078DFF82C
:10188000AC8280074FF0000A3ED5A748001D0168D2
:1018900011F00C0F08D00068C0F3810002280BD1B2
:1018A000D9F80000400207D42868800716D5E06800
:1018B000012800D112E033E1E068B8B10120C8F896
:1018C0000000FFF7F9FD064605E000BFFFF7F4FD55
:1018D000801B0228C0D828688007F7D528682169AE
:1018E00020F0F80040EAC10028600DE0C8F800A030
:1018F000FFF7E2FD064604E0FFF7DEFD801B02284D
:101900001FD828688007F7D42078000722D5864F93
:1019100087486169703771B101210160FFF7CCFD23
:10192000064604E0FFF7C8FD801B022809D8386886
:101930008007F7D50EE0C0F800A0FFF7BDFD064612
:1019400005E082E0FFF7B8FD801B02287DD83868EB
:101950008007F7D42078400768D5DFF8CCB100279E
:101960000BF13C0BDBF80000C0000BD4DBF80010DF
:1019700041F08051CBF80010DBF80000012700F0A7
:10198000805000906B4E3068C00510D4306840F431
:1019900080703060FFF790FD009005E0FFF78CFD50
:1019A0000099401A022850D83068C005F6D55E4E1E
:1019B000A0686C3601280FD00528306810D020F0C0
:1019C00001003060306820F004003060A068B8B1D9
:1019D000FFF772FD00900FE0306840F00100F4E77F
:1019E00040F004003060F7E7FFF766FD0099411A08
:1019F00041F28830814266D830688007F4D50EE025
:101A0000FFF75AFD009007E0FFF756FD0099411AD5
:101A100041F28830814256D830688007F4D42FB123
:101A2000DBF8001021F08051CBF80010A069C8B39A
:101A30003D49091D0968C1F3810102294AD00228E4
:101A4000504607D0C8F8600000E03CE0FFF734FDE6
:101A500004463BE04746C8F86000FFF72DFD064608
:101A600005E000BFFFF728FD801B02282BD828685F
:101A70008001F7D4D4E907010843A16A2E4A490836
:101A800002EB0141626A41EA8211084394F82C108A
:101A900040EA0161C9F8001001203866FFF70CFD2B
:101AA000044606E03EE000BFFFF706FD001B0228EB
:101AB00009D828688001F7D534E000BFFFF7FCFCA7
:101AC000001B022802D90320BDE8F88F2868800196
:101AD000F4D427E00128F7D0D9F80000E26900F437
:101AE000800191421CD1226A00F03F01914217D13E
:101AF00047F6C071626A0140B1EB821F10D1A26A41
:101B00004FF0FF3300F4403103EB5202B1EB024FD0
:101B100006D194F82C1000F07060B0EB016F01D08A
:101B20000120D1E70020CFE70438024000004742FF
:101B3000800E4742007000400000FFFF10B5401EBD
:101B4000B0F1807F01D3012010BD4FF0E02460612F
:101B50000F21601700F0EFFC0020A061072020613A
:101B6000002010BD70477047F8B50168044608684A
:101B7000CA684B6910F00F0F4FF0000559D003F001
:101B8000010602F49077374365D0C10705D0D1052F
:101B900003D5216C41F001012164410705D5D90726
:101BA00003D0216C41F002012164810705D5D907DA
:101BB00003D0216C41F004012164010707D502F034
:101BC0002001314303D0216C41F008012164216CD4
:101BD00000293AD0800604D5900602D5204600F0B0
:101BE000EAFA20684069216CC0F38010090700D42C
:101BF00060B3204600F0B8FA20684069400621D55D
:101C00002068143050E8001F21F0400140E8001225
:101C1000002AF5D1A06BA8B16C490165A06BFFF754
:101C2000EFF9002811D0A06B016D01B0BDE8F040C4
:101C3000084783060FD593060DD52046BDE8F8402A
:101C400000F0B9BA2046FFF78EFFF8BD2046FFF737
:101C50008AFF2564F8BD266B2023012E79D1C606A4
:101C600077D5D60675D5086848680090486940065B
:101C700040D5A16B086840680004000CEAD0A28D32
:101C80008242E7D9E085C869B0F5807F2DD0206811
:101C90000C3050E8001F21F4807140E80012002A47
:101CA000F5D12068143050E8001F21F0010140E810
:101CB0000012002AF5D12068143050E8001F21F0EE
:101CC000400140E80012002AF5D184F83E30256337
:101CD00020680C3050E8001F21F0100140E800128D
:101CE000002AF5D1A06BFFF742F9A08DE18D401AD3
:101CF00081B229E0A08DE18D401A81B2E08D0028EB
:101D0000A8D00029A6D020680C3050E8002F22F47B
:101D1000907240E80026002EF5D12068143050E87B
:101D2000002F22F0010240E80026002EF5D184F8B1
:101D30003E30256320680C3050E8002F22F010025E
:101D400040E80023002BF5D12046FFF70BFFF8BD3C
:101D5000FFE705062BD5150629D594F83D00212867
:101D6000F5D1A068B0F5805F01D12069B0B1206ADB
:101D7000411C2162216800784860E08C401E00040C
:101D8000000CE084E3D12068C16821F08001C160CB
:101D90002068C16841F04001C160D8E7206A00882E
:101DA000C0F308004860206A801C2062E5E7400616
:101DB000CDD55006CBD5CA68204622F04002CA6075
:101DC00084F83D3000F0ABF8C1E70000592100086D
:101DD00070B5040004D094F83D00002510B106E071
:101DE000012070BD84F83C50204600F023F82420E8
:101DF00084F83D002068C16821F40051C16020468C
:101E000000F03AFA2068016921F4904101612068EC
:101E1000416921F02A0141612068C16841F4005103
:101E2000C1602564202084F83D0084F83E00002035
:101E300070BD00002DE9F04186B0064614216846C9
:101E4000FEF789FA30493068884259D12F4800247A
:101E5000016841F480210160006800F48020059051
:101E60002A481038016841F00401016000686946A1
:101E700000F0040005904FF4406000900220CDE98E
:101E8000010403200390072004902148FFF716FA6D
:101E9000214D20484FF000672860C5E901744FF4D8
:101EA0008068C5E903486C61AC61EC612C6228462E
:101EB0006C62FFF787F908B1FEF75DFCB563AE63AE
:101EC000154D144860353030E5E802074020A5E89C
:101ED0001101114845F814496030AC61EC612C6285
:101EE0006C62FFF76FF908B1FEF745FC75630022DD
:101EF00011462720AE63FFF74DFB2720FFF73CFB81
:101F000006B0BDE8F08100000048004040380240C3
:101F10000008024028600240EC0100207047704732
:101F2000FEE700000F4810B50D4901600321416034
:101F300000214FF400228160C0E903124FF44012E7
:101F40004261017641768176C17601774177FEF76D
:101F50008EFE002803D0BDE81040FEF70CBC10BD7B
:101F600000640040580100200F4810B50D49016081
:101F70000321416000214FF400228160C0E9031277
:101F80004FF440124261017641768176C176017745
:101F90004177FEF76CFE002803D0BDE81040FEF745
:101FA000EABB10BD00680040800100200D4808B564
:101FB000016841F4001101600068002200F4001083
:101FC000009011460C20FFF7E5FA0C20FFF7D4FA39
:101FD000002211460E20FFF7DDFABDE808400E2072
:101FE000FFF7CABA3038024070B586B0142168468F
:101FF000FEF7B1F91A480024016841F002010160BE
:10200000016801F002010591016841F001010160E0
:10201000016801F001010591016841F004010160CE
:10202000016801F004010591016841F0800101603F
:1020300000680C4E00F080004FF48065059000228F
:1020400029463046FFF732FA01200095CDE9010418
:10205000694630460394FFF731F906B070BD0000C1
:1020600030380240001C02400D4810B50B49016099
:102070000C49416000214FF480628160C0E9031285
:102080000C22C0E90521C161FFF7A2FE002803D0A0
:10209000BDE81040FEF76FBB10BD000000480040D7
:1020A000A8010020A0860100FEE7FEE77047704708
:1020B000FFF708BA30B593B030216846FEF74BF908
:1020C00014210CA8FEF747F91D480025016841F0CE
:1020D00080510160006800F080501190194801683B
:1020E00041F4804101600068022400F480401190B6
:1020F00001200090000401908001CDE906400620F7
:102100000890A820CDE9090404200B906846FFF749
:102110005FFB08B172B6FEE70CA90F2081E8310021
:102120004FF4A0500F904FF48050109005210CA850
:10213000FFF762FA002801D072B6FEE713B030BD97
:1021400040380240007000400248016841F47001CC
:102150000160704788ED00E010B5806B0021C185FB
:10216000C184FFF700FD10BD01680C3151E8002F5C
:1021700022F4907241E80023002BF5D1016814315C
:1021800051E8002F22F0010241E80023002BF5D195
:10219000016B012909D101680C3151E8002F22F0AF
:1021A000100241E80023002BF5D1202180F83E10D9
:1021B00000210163704708B590F83E10222901D034
:1021C000022008BD82684FF480539A4201D1016910
:1021D00021B1816A9A421BD04AB10AE00268816A41
:1021E0005268C2F308020A80816A891C08E0026909
:1021F00072B10268526802F07F020A70816A491C5B
:102200008162C18D491E0904090CC18503D019E002
:1022100002685268F1E70168CA6822F02002CA60C9
:102220000168CA6822F48072CA6001684A6922F0B3
:1022300001024A61202180F83E10016B012903D080
:10224000FFF76CFE002008BD0021016301680C311E
:1022500051E8002F22F0100241E80023002BF5D1B5
:1022600001680A68D20602D50A6849680091818D22
:10227000FFF778FCE6E7000070B5044600680169E6
:10228000E26821F44051114301612169A068E269CB
:1022900008436169114308432168CA6849F20C6325
:1022A0009A430243CA6020684169A26921F44071DF
:1022B0001143416131492068884202D03049884247
:1022C00002D1FFF743FA01E0FFF730FAE269002399
:1022D000192164253226B2F5004F626828D0A0FB90
:1022E0000101930F9200FDF7BFFF0146B0FBF5F02F
:1022F0006FF01802504301EB800006EB0010B0FBBA
:10230000F5F000F0F002B1FBF5F002EB0012B1FBCA
:10231000F5F06FF01803584301EB800006EB001056
:10232000B0FBF5F000F00F0021681044886070BD2C
:10233000A0FB010192185B41FDF796FF0146B0FB3F
:10234000F5F00201B1FBF5F06FF01803584301EB13
:10235000800006EBC000B0FBF5F000F0F80002EBE7
:102360004002B1FBF5F0584301EB800006EBC000E2
:10237000B0FBF5F000F00700D6E7000000100140C8
:102380000014014010B50448FEF7EAF9BDE810401A
:102390000148FFF7E9BB0000A80100200C4808B580
:1023A00001680A684A680092CA6842F01002CA606E
:1023B00001684A6942F040024A61122100910168B5
:1023C000044B806BA3F11802091DFEF769F808BDE4
:1023D000A8010020C4020020F0B50188C1F30A0C56
:1023E0005149A1F800C042788378D20842EA4312EA
:1023F000C2F30A0EA1F802E08278C378920942EA99
:1024000083020379ACF5806C42EA8322C2F30A07A7
:102410008F8002794379520842EAC312C2F30A0656
:10242000CE804279AEF5806EC2F301128A72427993
:10243000A7F580679209CA72C2888A810289CA8117
:1024400042890A82057B8D74447BCC74C3898B825C
:10245000028AA1F800C0A1F802E08F80A6F580668C
:10246000CE80A2F580620A81304A0021465C565433
:10247000491C0729FADD08215718465C491C07F852
:10248000086C0F29F8DD017C1170417C5170817C52
:1024900091702749B1F90660B1F912703E44B1F963
:1024A0001E70B1F92A10394431444C2691FBF6F6DE
:1024B0001E492439370A4E80D77016710026D6710E
:1024C000807B00F001028A8000F00202CA8000F0E6
:1024D00004020A8100F008024A8100F040028A8169
:1024E00000F08002CA8100F010020A8200F0200091
:1024F00048820D704C7003F48070888203F4007081
:10250000C88203F48060088303F40060488303F406
:102510008050888303F40050C88303F4804008840B
:1025200003F400404884F0BDDC0200206400002079
:10253000F8000020FEE70907090E002804DB00F17F
:10254000E02080F80014704700F00F0000F1E02058
:1025500080F8141D7047000007489FED081AD0ED61
:10256000000A30EE200A20EE011AB0EE000A60EEFA
:10257000800A81EE200A70470C00002000F8FF4519
:10258000D0ED000A91ED000A30EEC00A10EE101AEC
:10259000B1F18B4F04DD9FED080A30EEC00A08E070
:1025A00010EE101A11F16A5F05D99FED040A30EEA2
:1025B000800A80ED000A704700F8FF4500000046E1
:1025C00000B58BB000200121CDE9060105900090F7
:1025D00001900290039004900E20CDE90810694606
:1025E0000548FEF74BF902210348FEF7C6F80248FA
:1025F000FEF78AFC0BB000BD5801002000B58BB07F
:1026000001220E2100200792CDE9051003900490CD
:10261000CDE9082100900190029069460548FEF737
:102620002DF902210348FEF7A8F80248FEF76CFCDA
:102630000BB000BD800100200649896B814207D1A3
:102640000068016841F4002101600348FFF7C4BE3F
:1026500070470000A8010020AC0200200649896BE9
:10266000814207D10068016821F40021016003481C
:10267000FFF7B2BE70470000A8010020C40200208E
:102680002DED028BFEF726FFFFF714FDFFF7ACFCE4
:10269000FFF78CFCFFF746FCFFF792FFFFF764FCA7
:1026A000FFF7E2FCFFF7AAFFFFF778FE9FED358A00
:1026B000DFED358A9FED322AF0EE481AB0EE681A47
:1026C000F0EE000AB1EE040A304800F0BBF82F48E3
:1026D0009FED2F2AF0EE481AB0EE681AF0EE000ACD
:1026E000B1EE040A343000F0ADF82A4C94ED030A40
:1026F000FFF732FF012284ED030A91022648FEF71C
:10270000D5FE264D9FED268B2249B5F902001431E6
:1027100000EE100AB8EEC00A84ED020A288800EE26
:10272000100AA1F10800B8EE400A84ED050AFFF78F
:1027300027FFD4ED050A94ED030A144800F034F89D
:10274000124884ED040AF0EE400A94ED000A343099
:1027500000F02AF884ED010A10EE100A00F0CCF91E
:1027600053EC182B00F0CAF800F098F800B2FDF70F
:102770006FFEA069401CA0610120FEF78DFDC3E73C
:102780000000FA450000C842000000009000002050
:1027900000803B4510000020001C02408400002007
:1027A000000000000000F8BF80ED050AC0ED060A39
:1027B00090ED071A30EE600A80ED081A80ED070AE6
:1027C000D0ED000A60EE801AC0ED091AD0ED0A0AB9
:1027D00090ED012A42EE000A30EE410AC0ED0A0AED
:1027E00090ED021A20EE011A80ED0B1A90ED030A0B
:1027F000F4EEC00AF1EE10FA09DCB1EE400AF4EE94
:10280000C00AF1EE10FA02D390ED0A0A01E080ED61
:102810000A0A31EE800A30EE010A80ED0C0AD0ED92
:10282000040AB4EEE00AF1EE10FA06DCF1EE600AFA
:10283000B4EEE00AF1EE10FA01D2C0ED0C0A90ED10
:102840000C0A704780EC050A7047000038B5044652
:1028500000680168406800900F4884421BD1A06B5B
:102860000068016821F001010160A06B01684A68FD
:10287000062A06D10968090301D5416C00E0C16B45
:102880008847A16B182009684860A06B0068016840
:1028900041F00101016038BDA80100204FEA410369
:1028A0004FEA5353A3F58063D3F11E03C8BFD3F19E
:1028B000210C0CDD4FF0004242EAC12242EA5052A4
:1028C00032FA03FC8CEAE17CACEBE1707047102B30
:1028D000C4BF0020704703F5787CBCF1FF3F04D0F3
:1028E0006FF0004282EA2100704770B500F0B0F846
:1028F0004992248000207047F2E70000DFF848C1C9
:1029000070B51CEA111E1EBF1CEA13159EEA0C0FBF
:1029100095EA0C0F00F06F8081EA030423EA4C1360
:102920004EEAD47E21EA4C1141F4801143F4801325
:10293000AE44A1FB024CA0FB0365AEF17F7E3619CD
:1029400055EB0C05A1FB034C4CF10003A0FB021C52
:1029500016EB0C06654153F10003094218BF46F01F
:10296000010613F4007F0BD14FEA03314FEA053023
:10297000340341EA155140EA16506FF003020AE0B1
:102980004FEAC3214FEAC520F40241EA555140EA1B
:1029900056506FF0020202EB2E4201EB025585EA1F
:1029A000CE710AD05FEA440C18BF24F0004450F105
:1029B000000041F1000120EAD47040F2FE7C624543
:1029C00000D270BDA84214BF4FF080444FF0404485
:1029D000002E08BF0024BEF1806FA8BFA1F1C04146
:1029E000BDE8704080F282804FF0000001F1C041EC
:1029F00001F0004170479EEA0C0F0CEA131518BF56
:102A000095EA0C0F06D04FF0000081EA030E0EF09D
:102A1000004170BD00F01CF88900013E00F007B8CD
:102A200000F009B84FEA430C5FEA5C5C08D081EA29
:102A3000030100F05BB84FEA410C5FEA5C5CF6D141
:102A40004FF00000014970470000FF070000F87FC9
:102A50000EF1020E2EF0030E5EF8046B364205D422
:102A6000012A43EB030515F5001F12D8012841EB9D
:102A7000010C1CF5001F0CD80ED14FEAD17C15F5C6
:102A8000001F0CEB4C0C0CF1020C08BF4CEBD37C80
:102A900004E04FF0080C01E04FEAD37C0CEB4C054E
:102AA00026FA05F606F00706B6F1040C06D20EEB80
:102AB000860CBDE870404CF0010C6047DFE80CF07C
:102AC000090B02024FF000414FF00000A1F5002178
:102AD00070BD19461046012851EB010418BFD4F50A
:102AE000001484BF002001F0004170BD0808A0F56B
:102AF00000114FEA3101704743004FEAD30C4FEA0F
:102B00003C0C43401FBF40070CF1605113F0FE4FD7
:102B100070471CF0006F03D100200CF0004170479B
:102B20000CF0004343EA507010B540EACC0000F0CE
:102B30000EF800BF000000924FEA0001FFF7D6BF79
:102B40004FF000414FF00000A1F5002170470EF159
:102B5000020E2EF0030E5EF8044B244204D44FEA1A
:102B60004102B2F17F4F11D84FEA4003B3F17F4FDA
:102B70000CD80ED14FEAD07CB2F17F4F0CEB4C0C4D
:102B80000CF1020C08BF4CEBD17C04E04FF0080CB8
:102B900001E04FEAD17C0CEB4C0324FA03F404F07F
:102BA0000704B4F1040C06D20EEB840CBDE810400F
:102BB0004CF0010C6047DFE80CF0070802024FF010
:102BC0000040A0F5800010BD0846420018BFD2F1B9
:102BD000807288BF00F0004010BD4FF04070E1EE01
:102BE000100A7047000610160006101600000000BC
:102BF00000000000010203040607080900000000AD
:102C000001020304242C0008000000206C000000D6
:102C1000C4010008902C00086C000020EC080000A3
:102C2000E0010008000000000000000000000000BB
:102C3000DA0F494000000000000000000000000022
:102C40007CD92040000000000000000000000000CF
:102C50000000000001000000100000000000000063
:102C60000024F4000000000000000000000000004C
:102C70000000000000000000000000000000000054
:102C80000000000000000000000000000000000044
:040000050800018965
:00000001FF
