:020000040800F2
:10000000B80600204D0200081B14000891130008D8
:100010001914000843040008C91400080000000077
:100020000000000000000000000000001F14000895
:10003000A5040008000000001D1400082114000899
:1000400067020008670200086702000867020008EC
:1000500067020008670200086702000867020008DC
:1000600067020008670200086702000867020008CC
:1000700067020008670200086702000867020008BC
:1000800067020008670200086702000867020008AC
:1000900045040008510400086702000867020008D0
:1000A000670200086702000867020008670200088C
:1000B000670200086702000867020008670200087C
:1000C000670200086702000867020008670200086C
:1000D000670200086702000867020008670200085C
:1000E000670200086702000867020008670200084C
:1000F000670200086702000867020008670200083C
:10010000670200086702000867020008670200082B
:10011000670200086702000867020008670200081B
:10012000670200086702000867020008670200080B
:1001300067020008670200086702000867020008FB
:1001400067020008670200086702000867020008EB
:1001500067020008670200086702000867020008DB
:1001600067020008670200086702000867020008CB
:10017000670200086702000867020008000000002C
:1001800067020008670200086702000867020008AB
:10019000670200086702000867020008670200089B
:1001A00000000000000000006702000800F002F8F4
:1001B00000F03CF80AA090E8000C82448344AAF1C5
:1001C0000107DA4501D100F031F8AFF2090EBAE8C3
:1001D0000F0013F0010F18BFFB1A43F0010318477B
:1001E0008C130000AC130000103A24BF78C878C10B
:1001F000FAD8520724BF30C830C144BF04680C602D
:10020000704700000023002400250026103A28BF74
:1002100078C1FBD8520728BF30C148BF0B60704778
:100220001FB501F095F91FBD10B510BD00F0CFF856
:100230001146FFF7F5FF01F075F900F0EDF803B492
:10024000FFF7F2FF03BC00F0F5F800000948804713
:1002500009480047FEE7FEE7FEE7FEE7FEE7FEE7A8
:10026000FEE7FEE7FEE7FEE704480549054A064BC0
:1002700070470000B9140008AD010008B800002064
:10028000B8060020B8020020B802002053EA020C91
:1002900000F069802DE9F04B4FF00006002B1FBFE6
:1002A000B3FA83F503FA05F424FA05F65E4012BFAB
:1002B0001643B2FA82F502FA05F4C5F120051EBF15
:1002C00022FA05FC44EA0C04203556EA044C4FEAB5
:1002D000144418BF641C4FF000084FF0000990420E
:1002E00071EB030C39D3002919BFB1FA81F701FA78
:1002F00007F6B0FA80F700FA07F6C7F120071EBF2D
:1003000020FA07FC46EA0C062037B6FBF4FCA7EB04
:100310000507103F07F01F0BCBF120060CFA0BFB73
:100320002CFA06F644BFB3460026202FA4BF5E4633
:100330004FF0000B5BEA060C08BF4FF0010B19EB06
:100340000B09ABFB027C48EB0608C01B06FB02CC8A
:100350000BFB03CC71EB0C01C1E70B460246414697
:100360004846BDE8F08B13B54FF000004FF0000198
:10037000AFF30080BDE81C4070474FF0000200B5AD
:10038000134694469646203922BFA0E80C50A0E8B8
:100390000C50B1F12001BFF4F7AF090728BFA0E866
:1003A0000C5048BF0CC05DF804EB890028BF40F832
:1003B000042B08BF704748BF20F8022B11F0804F74
:1003C00018BF00F8012B704770477047704775469B
:1003D00000F02CF8AE4605006946534620F00700B1
:1003E000854618B020B5FFF73FFFBDE820404FF02D
:1003F00000064FF000074FF000084FF0000B21F00F
:100400000701AC46ACE8C009ACE8C009ACE8C009DB
:10041000ACE8C0098D46704710B50446AFF30080C4
:100420002046BDE81040FFF70ABF000000487047B3
:100430005800002001491820ABBEFEE7260002004C
:100440007047FEE7014800F038B900003000002096
:10045000014800F032B900003000002038B50F4CE0
:100460004FF4007525600025A560E560082525612D
:100470000B4C050A25706070080AA070E170100A24
:1004800020716271180AA0710449E3716B4622461B
:1004900001F1180000F01BF838BD00001800002022
:1004A00000000020704772B6FEE790F82020012A75
:1004B00007D0022A05D0416A41F48021416201201F
:1004C0007047006842690A43426100207047F0B5F6
:1004D00090F820500468A468012D05D0022D03D0A7
:1004E000416A41F480215DE014F0406F01D1E500E4
:1004F00055D5C4F30164022C03D9416A41F40001CB
:1005000050E00125A5401D608D684FF4C0739DB17A
:10051000CE6835434E6845EAC605066803EB041706
:10052000F5514FF4C275076805EB04150E697E514D
:10053000097D012905D009E00E88CD6845EA4655B8
:10054000EBE701684E5946F480764E511179D57922
:10055000567941EA056195792D0445EA0625294336
:100560004FF4C676056806EB0416A9511178D578C4
:1005700041EA0561957852782D0445EA022211433B
:100580004FF4C475026805EB04155151006803EB84
:100590000411425842F0010242500020F0BD416A6D
:1005A00041F4001141620120F0BD000010B590F847
:1005B0002020012A07D0022A05D0416A41F4802177
:1005C0004162012010BD3B48D0F8002242F00102F8
:1005D000C0F80022D0F8002222F47C52C0F8002299
:1005E000D0F800224B6A42EA0322C0F800220A7DBA
:1005F00002F01F0301229A40D0F81C329343C0F846
:100600001C32CB69B3B9D0F80C329343C0F80C322A
:100610008C894B6864F31F434C6900EBC404C4F835
:1006200040320C890B6864F31F434C6900EBC4042F
:10063000C4F84432CB69012B16D1D0F80C321343E5
:10064000C0F80C320C884B6864F31F434C6900EB14
:10065000C404C4F840320C89CB6864F31F434C696E
:1006600000EBC404C4F844328B69002BD0F8043288
:100670000ED01343C0F804320B69002BD0F81432AB
:1006800008D01343C0F81432096A012904D008E0E5
:100690009343EFE79343F5E7D0F81C121143C0F8FA
:1006A0001C12D0F8001221F00101C0F80012002045
:1006B00010BD00000064004070472DE9F05F054662
:1006C000006800244669D0F804908768D0F80CB020
:1006D000D0F810A0D0F81880F10748D0F90714D04E
:1006E00001218160B80703D5284600F0E8F90CE045
:1006F000780702D54FF4006407E0380702D54FF4BD
:10070000805402E0284600F0D9F9F80516D529688A
:100710004FF480708860B80503D5284600F0D1F901
:100720000CE0780502D544F4005407E0380502D502
:1007300044F4804402E0284600F0C2F9F80316D5DC
:1007400029684FF480308860B80303D5284600F04C
:10075000BAF90CE0780302D544F4004407E038030A
:1007600002D544F4803402E0284600F0ABF93007AB
:1007700007D55FEACB6004D52968102044F40074E3
:10078000C86070074FF0080707D55FEA0B7004D503
:100790002868C760284600F05FF9B00706D52868CA
:1007A000C068800702D0284600F057F9700607D5C8
:1007B0005FEACA6004D52968102044F480640861A7
:1007C000B00607D55FEA0A7004D528680761284695
:1007D00000F044F9F00606D528680069800702D0C9
:1007E000284600F03CF9B00308D55FEAC96005D59A
:1007F000296810204860284600F032F9F00307D538
:100800005FEA097004D528684760284600F05CF963
:10081000300446D55FEA497040D5F00504D55FEA5B
:10082000C87001D044F00104B00504D55FEA8870B7
:1008300001D544F00204700504D55FEA487001D583
:1008400044F00404300529D518F0700F26D008F0C4
:100850007000402815D006DC102809D020280AD0C6
:10086000302816D10AE050280ED0602811D10EE0B1
:1008700044F008040DE044F010040AE044F02004C1
:1008800007E044F0400404E044F0800401E044F454
:1008900080742868816921F07001816129680420D1
:1008A0004860002C05D0686A204368622846FFF73C
:1008B00003FFBDE8F09F70B5040003D094F820005A
:1008C00010B104E0012070BD204600F081F82068DE
:1008D000016841F00101016000F024FA0546052697
:1008E00004E000F01FFA401B0A2811D82068406875
:1008F000C007F6D02068016821F00201016000F015
:1009000011FA05460BE000F00DFA401B0A2806D943
:10091000606A40F40030606284F82060D2E72068AA
:1009200040688007EFD4207E0128206801683DD010
:1009300021F080010160607E01282068016838D0C4
:1009400021F040010160A07E01282068016833D0B9
:1009500021F020010160E07E0128206801682ED08E
:1009600041F010010160207F01282068016829D032
:1009700021F008010160607F01282068016824D00F
:1009800021F004010160D4E902010843D4E9041212
:10099000114308436168491E08432168C86100206B
:1009A0006062012084F82000002070BD41F08001C9
:1009B000C0E741F04001C5E741F02001CAE721F05E
:1009C0001001CFE741F00801D4E741F00401D9E775
:1009D00010B586B0044614216846FFF7CEFC1B49CB
:1009E000206888422FD11A48016841F000710160E7
:1009F000006800F00070059015481038016841F05B
:100A0000080101600068022100F008000590032041
:100A1000CDE900010121CDE90210092004906946C9
:100A20000C4800F065F800221146142000F0E8F9A7
:100A3000142000F0D7F900221146152000F0E0F94B
:100A4000152000F0CFF906B010BD00000064004092
:100A500040380240000C02407047704770477047B2
:100A60007047000070B5044690F82000012804D0BB
:100A7000606A40F40020606218E0022084F82000E0
:100A80002068016821F00101016000F04BF9054682
:100A90000EE000BF00F046F9401B0A2808D9606A42
:100AA00040F400306062052084F82000012070BD11
:100AB00020684068C007EDD1606270BD7047704724
:100AC00070477047704770477047000070B5044624
:100AD00000F028F90546601C02D004480078044460
:100AE00000F020F9401BA042FAD370BD080000209E
:100AF0002DE9F84FDFF8F8A10022012403254FF07B
:100B00000F090AF1040BAAF1040E00BF0B6804FAE6
:100B100002F63340B34270D10F7907F00307012F7B
:100B200001D0022F16D187684FEA420805FA08FC67
:100B300027EA0C07D1F80CC00CFA08FC4CEA070CA9
:100B4000C0F808C04768B7430E79C6F30016964050
:100B50003E4346600E79F643B6070AD0C7684FEAAF
:100B6000420C05FA0CF6B7438E6806FA0CF63E43C3
:100B7000C6600E7906F00306022E10D1D60800EBEF
:100B80008608D8F8206057074FEAD76C09FA0CF7A7
:100B9000BE430F6907FA0CF73743C8F820700668A0
:100BA0004FEA420C05FA0CF7BE430F7907F0030732
:100BB00007FA0CF7374307604E6816F4403F1CD025
:100BC0004C4E376847F480473760366822F0030799
:100BD00006F480460096484E07EB060CDCF80868E1
:100BE00097073F0F09FA07F826EA0806DFF80C8195
:100BF000404503D14FF0000841E072E0DFF800818A
:100C0000404502D14FF0010839E0DFF8F880404557
:100C100002D14FF0020832E0DFF8EC80404502D10B
:100C20004FF003082BE0DFF8E480404502D14FF09D
:100C3000040824E0DFF8D880404502D14FF00508D1
:100C40001DE0DFF8D080404502D14FF0060816E0E5
:100C5000DFF8C480404502D14FF007080FE0DFF80D
:100C6000BC80404502D14FF0080808E0DFF8B080B2
:100C7000404502D14FF0090801E04FF00A0808FA98
:100C800007F848EA0608CCF80888DAF80060574602
:100C9000D1F804C09E435FEACC2C00D51E433E60D1
:100CA000DBF800605F46D1F804C09E435FEA8C2CFD
:100CB00000D51E433E60DEF800607746D1F804C0E0
:100CC0009E435FEA8C3C00D51E433E60084F083FC0
:100CD0003E68D1F804C09E435FEACC3C00D51E4379
:100CE0003E60521C102AFFF411AFBDE8F88F0000DF
:100CF000083C0140443802400030014000000240FE
:100D00000004024000080240000C024000100240B3
:100D10000014024000180240001C02400020024063
:100D2000002402400148806870470000080000204D
:100D300002488168027811448160704708000020F1
:100D40000B4810B5016841F400710160016841F47D
:100D500080610160016841F480710160032000F04E
:100D60006FF80F2000F006F800F024F8002010BD06
:100D7000003C024070B50D4D04464FF47A7128785E
:100D8000B1FBF0F00A490968B1FBF0F000F0ECFAB1
:100D900048B9102C07D200222146501E00F030F82E
:100DA00000206C6070BD012070BD000008000020B4
:100DB000140000200A4808B5016841F48041016030
:100DC000006800F4804000900548001F016841F071
:100DD00080510160006800F08050009008BD000064
:100DE00044380240002809DB00F01F020121914035
:100DF0004009800000F1E020C0F8001170470000B9
:100E0000F0B40E4B1B680C46C3F30223C3F1070575
:100E1000042D00D90425191D072901D2002300E063
:100E2000DB1E012606FA05F1491E214099409E402D
:100E3000761E16403143F0BC00F047BB0CED00E0DD
:100E4000064900F0070208684FF6FF03184040EA21
:100E50000220034A10430860704700000CED00E0D8
:100E60000000FA052DE9F0470E46050065D0DFF8D1
:100E70001481D8F80000F7B200F00F00B04207D29A
:100E800088F80070D8F8000000F00F00B04254D18C
:100E900028683D4C810712D5400703D5206840F4EF
:100EA000E05020602878000703D5206840F46040B7
:100EB00020602068A96820F0F000084320602878AE
:100EC000C0072DD0304968680839012812D002289F
:100ED00013D0032811D00968890700292DDA216869
:100EE00021F0030101432160FFF71CFF814641F21D
:100EF000883A0EE009688903EFE709688901ECE7A1
:100F0000FFF710FFA0EB0901514502D90320BDE80E
:100F1000F0872068696800F00C00B0EB810FEFD11A
:100F2000D8F80010404601F00F01B14207D9077010
:100F3000006800F00F00B04201D00120E7E72878F8
:100F4000400705D52068E96820F4E0500843206098
:100F50002878000706D52068296920F4604040EA17
:100F6000C100206000F018F82168084AC1F303119D
:100F7000515CC8400649086006480068FFF7FAFE61
:100F80000020C4E7003C0240083802405A1500081F
:100F9000140000200C000020154810B5006810F067
:100FA0000C02144813D01449042A0FD0082A0ED179
:100FB0000F4C241F2268236802F03F025B0207D512
:100FC0002068C0F38810A0FB010106E0084610BDB0
:100FD0002168C1F38811A1FB00010023FFF756F936
:100FE0002168C1F30141491C4900B0FBF1F010BD7B
:100FF000083802400024F400001BB7002DE9F84F28
:1010000004006ED02078DFF84C93C007A9F10405E6
:101010004AD009F104000168C1F38101012908D017
:101020000068C0F3810002280AD1D9F8000040020C
:1010300006D52868800337D560680028E1D033E002
:101040006068B0F5803F10D0B0F5A02F286810D0B0
:1010500020F480302860286820F4802028606068B0
:10106000A8B1FFF75FFE06460DE0286840F4803027
:10107000F4E740F480202860F7E700BFFFF752FE56
:10108000801B642873D828688003F7D50CE0FFF72D
:1010900049FE064605E000BFFFF744FE801B6428BA
:1010A000F0D828688003F7D42078DFF8AC82800776
:1010B0004FF0000A3ED5A748001D016811F00C0F43
:1010C00008D00068C0F3810002280BD1D9F80000D5
:1010D000400207D42868800716D5E068012800D1AF
:1010E00012E033E1E068B8B10120C8F80000FFF772
:1010F00019FE064605E000BFFFF714FE801B02281C
:10110000C0D828688007F7D52868216920F0F80042
:1011100040EAC10028600DE0C8F800A0FFF702FE19
:10112000064604E0FFF7FEFD801B02281FD8286852
:101130008007F7D42078000722D5864F8748616959
:10114000703771B101210160FFF7ECFD064604E044
:10115000FFF7E8FD801B022809D838688007F7D51B
:101160000EE0C0F800A0FFF7DDFD064605E082E0D6
:10117000FFF7D8FD801B02287DD838688007F7D498
:101180002078400768D5DFF8CCB100270BF13C0B85
:10119000DBF80000C0000BD4DBF8001041F08051F8
:1011A000CBF80010DBF80000012700F08050009021
:1011B0006B4E3068C00510D4306840F480703060E9
:1011C000FFF7B0FD009005E0FFF7ACFD0099401A75
:1011D000022850D83068C005F6D55E4EA0686C363F
:1011E00001280FD00528306810D020F001003060B1
:1011F000306820F004003060A068B8B1FFF792FDBD
:1012000000900FE0306840F00100F4E740F0040087
:101210003060F7E7FFF786FD0099411A41F2883008
:10122000814266D830688007F4D50EE0FFF77AFD7A
:10123000009007E0FFF776FD0099411A41F28830EF
:10124000814256D830688007F4D42FB1DBF8001003
:1012500021F08051CBF80010A069C8B33D49091DA9
:101260000968C1F3810102294AD00228504607D0FB
:10127000C8F8600000E03CE0FFF754FD04463BE0A6
:101280004746C8F86000FFF74DFD064605E000BF81
:10129000FFF748FD801B02282BD828688001F7D46F
:1012A000D4E907010843A16A2E4A490802EB01412B
:1012B000626A41EA8211084394F82C1040EA016105
:1012C000C9F8001001203866FFF72CFD044606E03F
:1012D0003EE000BFFFF726FD001B022809D8286862
:1012E0008001F7D534E000BFFFF71CFD001B02288A
:1012F00002D90320BDE8F88F28688001F4D427E0E4
:101300000128F7D0D9F80000E26900F48001914289
:101310001CD1226A00F03F01914217D147F6C071FB
:10132000626A0140B1EB821F10D1A26A4FF0FF3315
:1013300000F4403103EB5202B1EB024F06D194F8B6
:101340002C1000F07060B0EB016F01D00120D1E7EC
:101350000020CFE70438024000004742800E474299
:10136000007000400000FFFF10B5401EB0F1807F0C
:1013700001D3012010BD4FF0E02460610F21601700
:1013800000F0A3F80020A06107202061002010BD1C
:10139000FEE70000104810B50E49016006214160CB
:1013A0004FF08041816000214FF40032C0E9031208
:1013B00012014261017641768176C17601774177EB
:1013C000FFF779FA002803D0BDE81040FFF76BB8AB
:1013D00010BD000000640040300000200D4808B53A
:1013E000016841F001010160016801F00101009113
:1013F000016841F008010160016801F008010091F5
:10140000016841F080010160006800F080000090F8
:1014100008BD000030380240FEE7FEE77047704725
:10142000FFF786BC30B593B030216846FEF7A5FFC4
:1014300014210CA8FEF7A1FF1D480025016841F00A
:1014400080510160006800F08050119019480168D7
:1014500041F4404101600068022400F440401190D2
:1014600001200090000401908001CDE90640062093
:101470000890A820CDE9090404200B906846FFF7E6
:10148000BDFD08B172B6FEE70CA90F2081E831005E
:101490004FF4A0500F904FF48050109005210CA8ED
:1014A000FFF7E0FC002801D072B6FEE713B030BDB4
:1014B00040380240007000400248016841F4700169
:1014C0000160704788ED00E0FEE70907090E00287B
:1014D00004DB00F1E02080F80014704700F00F00FA
:1014E00000F1E02080F8141D7047000000B58BB0BB
:1014F00000200121CDE906010891009001900290A1
:1015000003900590049069460548FFF74FF804489A
:10151000FFF7A8FA02210248FEF7C7FF0BB000BD93
:1015200030000020FFF70CFCFFF77CFFFFF756FFB1
:10153000FFF730FFFFF7DAFF4FF47A7423461A46BD
:1015400020461146FEF78AFF6420FFF7BFFAF5E751
:101550004FF04070E1EE100A7047000000000000FC
:101560000000010203040607080900008C150008AA
:101570000000002018000000E8010008A415000881
:1015800018000020A006000004020008000000006F
:10159000000000000100000010000000000000003A
:0415A0000024F4002F
:04000005080001AD41
:00000001FF
