:020000040800F2
:1000000040470020E90200080B1B0008BB1900084C
:10001000091B0008DD050008B51C000800000000F1
:10002000000000000000000000000000290200089D
:10003000410600080000000085020008111B0008AE
:100040000303000803030008030300080303000878
:10005000030300080D1B0008030300080303000846
:100060000303000803030008030300080303000858
:100070000303000803030008030300080303000848
:100080000303000803030008030300080303000838
:10009000E105000803030008030300080303000848
:1000A0000303000803030008030300080303000818
:1000B0000303000803030008030300080303000808
:1000C00003030008030300080303000803030008F8
:1000D00003030008030300080303000803030008E8
:1000E00003030008030300080303000803030008D8
:1000F00003030008030300080303000803030008C8
:1001000003030008030300080303000803030008B7
:100110000303000803030008E11B000803030008B1
:100120000303000803030008030300080303000897
:10013000030300080303000803030008F90500088F
:10014000ED0500080303000803030008030300088B
:100150000303000803030008030300080303000867
:100160000303000803030008030300080303000857
:100170000303000803030008030300080000000055
:10018000030300080303000800F002F800F03CF845
:100190000AA090E8000C82448344AAF10107DA45E2
:1001A00001D100F031F8AFF2090EBAE80F0013F0F8
:1001B000010F18BFFB1A43F001031847542E00002B
:1001C000742E0000103A24BF78C878C1FAD85207BC
:1001D00024BF30C830C144BF04680C6070470000C1
:1001E0000023002400250026103A28BF78C1FBD840
:1001F000520728BF30C148BF0B6070471FB502F0DF
:10020000B2FE1FBD10B510BD00F061F91146FFF739
:10021000F5FF01F09DFD00F07FF903B4FFF7F2FF59
:1002200003BC00F087F900002C4B19680868B0E89F
:10023000F04F80F30988BFF36F8F4FF0000080F319
:10024000118870470000000008480068006880F3CB
:1002500008884FF0000080F3148862B661B6BFF3DF
:100260004F8FBFF36F8F00DF00BF00BF08ED00E0CE
:10027000DFF80C00016841F470010160704700BFB5
:1002800088ED00E0EFF30980BFF36F8F134B1A681E
:100290001EF0100F08BF20ED108A20E9F04F10600B
:1002A00009B44FF0500080F31188BFF34F8FBFF3B4
:1002B0006F8F02F05DF94FF0000080F3118809BCE8
:1002C00019680868B0E8F04F1EF0100F08BFB0ECD6
:1002D000108A80F30988BFF36F8F704730000020C9
:1002E000EFF3058070470000094880470948004740
:1002F000FEE7FEE7FEE7FEE7FEE7FEE7FEE7FEE7D6
:10030000FEE7FEE704480549054A064B7047000032
:10031000D11B00088901000840410020404700200F
:10032000404300204043002053EA020C00F0698063
:100330002DE9F04B4FF00006002B1FBFB3FA83F5F9
:1003400003FA05F424FA05F65E4012BF1643B2FA2A
:1003500082F502FA05F4C5F120051EBF22FA05FC5C
:1003600044EA0C04203556EA044C4FEA144418BF02
:10037000641C4FF000084FF00009904271EB030C31
:1003800039D3002919BFB1FA81F701FA07F6B0FA9B
:1003900080F700FA07F6C7F120071EBF20FA07FC16
:1003A00046EA0C062037B6FBF4FCA7EB0507103F26
:1003B00007F01F0BCBF120060CFA0BFB2CFA06F60C
:1003C00044BFB3460026202FA4BF5E464FF0000B6B
:1003D0005BEA060C08BF4FF0010B19EB0B09ABFBF6
:1003E000027C48EB0608C01B06FB02CC0BFB03CCCF
:1003F00071EB0C01C1E70B46024641464846BDE899
:10040000F08B13B54FF000004FF00001AFF3008008
:10041000BDE81C40704710B5203AC0F00B80B1E831
:100420001850203AA0E81850B1E81850A0E8185029
:10043000BFF4F5AF5FEA027C24BFB1E81850A0E832
:10044000185044BF18C918C0BDE810405FEA827C4C
:1004500024BF51F8043B40F8043B08BF7047D20763
:1004600028BF31F8023B48BF11F8012B28BF20F804
:10047000023B48BF00F8012B70474FF0000200B567
:10048000134694469646203922BFA0E80C50A0E8B7
:100490000C50B1F12001BFF4F7AF090728BFA0E865
:1004A0000C5048BF0CC05DF804EB890028BF40F831
:1004B000042B08BF704748BF20F8022B11F0804F73
:1004C00018BF00F8012B704770477047704775469A
:1004D00000F02CF8AE4605006946534620F00700B0
:1004E000854618B020B5FFF70DFFBDE820404FF05E
:1004F00000064FF000074FF000084FF0000B21F00E
:100500000701AC46ACE8C009ACE8C009ACE8C009DA
:10051000ACE8C0098D46704710B50446AFF30080C3
:100520002046BDE81040FFF778BE00000048704745
:10053000DC40002001491820ABBEFEE72600020087
:100540007047012001F01DFCFBE700001FB51F4CA8
:100550001F4F4FF4806B012259461E4800F06AFD80
:1005600053468DE860031A461146B7EE001AF0EEC6
:10057000080AB0EE000A084601F0A2FC94ED010A58
:10058000BDEEC00A10EE100A01B210EE100A00B261
:1005900000F038F8104800F0EDFBB7F90C005346B6
:1005A00000EE100A1A461146B8EEC00A084684ED5D
:1005B000010A8DE86003D4ED000A01F019FC84ED16
:1005C000010A012001F0DDFBC5E700000800002062
:1005D000D8000020001C02407C030020FEE7000041
:1005E000014800F0B0B9000054030020014800F0B9
:1005F000AAB900007C030020014800F0A4B9000063
:100600007C03002008B50B4A4FF4007313600023ED
:100610009360D36008231361074A030A9370D07074
:10062000080A107151716B460249044800F021F824
:1006300008BD0000C0000020000000207C03002056
:10064000704772B6FEE7012001F09BFBFBE790F8D4
:100650002020012A07D0022A05D0416A41F48021D6
:10066000416201207047006842690A4342610020EC
:100670007047F0B590F820500468A468012D05D0AB
:10068000022D03D0416A41F480215DE014F0406FF7
:1006900001D1E50055D5C4F30164022C03D9416AA8
:1006A00041F4000150E00125A5401D608D684FF424
:1006B000C0739DB1CE6835434E6845EAC6050668ED
:1006C00003EB0417F5514FF4C275076805EB0415E9
:1006D0000E697E51097D012905D009E00E88CD689B
:1006E00045EA4655EBE701684E5946F480764E518F
:1006F0001179D579567941EA056195792D0445EA54
:10070000062529434FF4C676056806EB0416A95161
:100710001178D57841EA0561957852782D0445EA3B
:10072000022211434FF4C475026805EB04155151C0
:10073000006803EB0411425842F0010242500020CD
:10074000F0BD416A41F4001141620120F0BD00009A
:1007500010B590F82020012A07D0022A05D0416A5E
:1007600041F480214162012010BD3B48D0F80022B5
:1007700042F00102C0F80022D0F8002222F47C529C
:10078000C0F80022D0F800224B6A42EA0322C0F8E7
:1007900000220A7D02F01F0301229A40D0F81C3289
:1007A0009343C0F81C32CB69B3B9D0F80C329343F1
:1007B000C0F80C328C894B6864F31F434C6900EB22
:1007C000C404C4F840320C890B6864F31F434C69BD
:1007D00000EBC404C4F84432CB69012B16D1D0F825
:1007E0000C321343C0F80C320C884B6864F31F437F
:1007F0004C6900EBC404C4F840320C89CB6864F344
:100800001F434C6900EBC404C4F844328B69002BCD
:10081000D0F804320ED01343C0F804320B69002B19
:10082000D0F8143208D01343C0F81432096A0129F1
:1008300004D008E09343EFE79343F5E7D0F81C12A8
:100840001143C0F81C12D0F8001221F00101C0F8C9
:100850000012002010BD000000640040704730B559
:1008600090F82040012C05D0022C03D0416A41F4BD
:1008700080215DE00468002955D02469A40754D084
:100880004FF4D874056804EB01142D5915F00405D4
:10089000956005682D594ED0ED08556005682C59B6
:1008A00004F00204D4604FF4DA74056804EB011418
:1008B0002D5905F00F05156105682D59C5F307255C
:1008C000956105682C59240C54614FF4DC7204685E
:1008D00002EB0112A4581C700468A458240A5C702E
:1008E0000468A458240C9C700468A258120EDA7094
:1008F0004FF4DE72046802EB0112A4581C71046804
:10090000A458240A5C710468A458240C9C710468DF
:10091000A258120EDA71006881B1016941F020011C
:100920000161002030BDE468A8E7416A41F400118C
:100930004162012030BD6D0D1560AFE7C16841F027
:100940002001C160EDE72DE9F05F05460068002455
:100950004669D0F804908768D0F80CB0D0F810A0A1
:10096000D0F81880F10748D0F90714D00121816030
:10097000B80703D5284600F05EFA0CE0780702D5E8
:100980004FF4006407E0380702D54FF4805402E0CA
:10099000284600F04FFAF80516D529684FF4807004
:1009A0008860B80503D5284600F047FA0CE07805C2
:1009B00002D544F4005407E0380502D544F48044DD
:1009C00002E0284600F038FAF80316D529684FF4FB
:1009D00080308860B80303D5284600F030FA0CE078
:1009E000780302D544F4004407E0380302D544F408
:1009F000803402E0284600F021FA300707D55FEA8C
:100A0000CB6004D52968102044F40074C8607007D6
:100A10004FF0080707D55FEA0B7004D52868C76058
:100A2000284600F0A5F9B00706D52868C0688007F9
:100A300002D0284600F09EF9700607D55FEACA602A
:100A400004D52968102044F480640861B00607D5F5
:100A50005FEA0A7004D528680761284600F0BAF9F1
:100A6000F00606D528680069800702D0284600F005
:100A7000B2F9B00308D55FEAC96005D5296810202E
:100A80004860284600F0A8F9F00307D55FEA09702E
:100A900004D528684760284600F0D2F9300446D5CE
:100AA0005FEA497040D5F00504D55FEAC87001D00F
:100AB00044F00104B00504D55FEA887001D544F024
:100AC0000204700504D55FEA487001D544F00404BF
:100AD000300529D518F0700F26D008F07000402896
:100AE00015D006DC102809D020280AD0302816D1CD
:100AF0000AE050280ED0602811D10EE044F008041E
:100B00000DE044F010040AE044F0200407E044F053
:100B1000400404E044F0800401E044F48074286858
:100B2000816921F070018161296804204860002CEE
:100B300005D0686A204368622846FFF78FFEBDE84B
:100B4000F09F70B5040003D094F8200010B104E0C9
:100B5000012070BD204600F081F82068016841F056
:100B60000101016000F06CFA0546052604E000F082
:100B700067FA401B0A2811D820684068C007F6D0E1
:100B80002068016821F00201016000F059FA054671
:100B90000BE000F055FA401B0A2806D9606A40F4C1
:100BA0000030606284F82060D2E7206840688007E7
:100BB000EFD4207E0128206801683DD021F080011B
:100BC0000160607E01282068016838D021F0400172
:100BD0000160A07E01282068016833D021F0200147
:100BE0000160E07E0128206801682ED041F01001EC
:100BF0000160207F01282068016829D021F00801C8
:100C00000160607F01282068016824D021F0040180
:100C10000160D4E902010843D4E9041211430843F6
:100C20006168491E08432168C86100206062012094
:100C300084F82000002070BD41F08001C0E741F041
:100C40004001C5E741F02001CAE721F01001CFE7DC
:100C500041F00801D4E741F00401D9E72DE9F04360
:100C600087B0044614216846FFF707FC3C4B3D481B
:100C7000DFF8E8801968D4F800C03A4A0225032654
:100C80000927DFF8E49010300024491CC44524D122
:100C90001960012907D1016841F000710160006805
:100CA00000F000700590106840F0020010601068BD
:100CB00002AB00F0020005904FF44070CDE9000552
:100CC00083E8D0006946484600F0BCF800220521C0
:100CD000142000F05DFA14203AE0DFF89080C4455B
:100CE00038D1D0F800C04CF0806CC0F800C0D0F80B
:100CF00000C001290CF0806CCDF814C0196007D138
:100D0000016841F000710160006800F0007005901A
:100D1000106840F002001060106802AB00F00200A2
:100D200005906020CDE9000583E8D000694648467B
:100D300000F088F8002205213F2000F029FA3F202A
:100D400000F018FA00220521402000F021FA40208E
:100D500000F010FA07B0BDE8F08300000064004026
:100D60001C000020303802400004024000680040AF
:100D70007047000000B58BB001AB03AA0021FFF75C
:100D80006EFD0398A0F50071013905D0012903D04B
:100D9000022901D0032919D1401EC0B20C4900EB31
:100DA000800201EB420031F812300381BDF80430BB
:100DB0005BBA21F81230BDF8061049BA4180BDF87F
:100DC000081049BA81809DF80A1081710BB000BDEE
:100DD00098000020704770477047000070B50446C7
:100DE00090F82000012804D0606A40F4002060627E
:100DF00018E0022084F820002068016821F0010139
:100E0000016000F01DF905460EE000BF00F018F982
:100E1000401B0A2808D9606A40F40030606205204F
:100E200084F82000012070BD20684068C007EDD123
:100E3000606270BD70477047704770477047704779
:100E4000704700002DE9F84FDFF8BCA10022012512
:100E500003264FF00F090AF1040BAAF1040E00BF9C
:100E60000B6805FA02F42340A34270D10F7907F012
:100E70000307012F01D0022F16D187684FEA4208DD
:100E800006FA08FC27EA0C07D1F80CC00CFA08FC9B
:100E90004CEA070CC0F808C04768A7430C79C4F3B4
:100EA000001494403C4344600C79E443A4070AD006
:100EB000C4684FEA420C06FA0CF7BC438F6807FA85
:100EC0000CF72743C7600C7904F00304022C12D1FD
:100ED000D40800EB840CDCF820405707FF0E09FA19
:100EE00007F824EA0804D1F8108008FA07F848EA5D
:100EF0000408CCF8208004684FEA420C06FA0CF78C
:100F0000BC430F7907F0030707FA0CF72743076084
:100F10004C6814F4403F70D03C4C276847F480473D
:100F20002760246822F0030704F480440094384CBE
:100F300007EB040CDCF8084897074FEA177809FA22
:100F400008F7BC43334FB84202D1002724E054E0F5
:100F5000314FB84201D101271EE0304FB84201D1D4
:100F6000022719E02E4FB84201D1032714E02D4F7C
:100F7000B84201D104270FE02B4FB84201D1052719
:100F80000AE02A4FB84201D1062705E0284FB842AF
:100F900001D1072700E0082707FA08F72743CCF814
:100FA0000878DAF800405746D1F804C09C435FEA5D
:100FB000CC2C00D51C433C60DBF800405F46D1F8E8
:100FC00004C09C435FEA8C2C00D51C433C60DEF8D7
:100FD00000407746D1F804C09C435FEA8C3C00D5C2
:100FE0001C433C60084F083F3C68D1F804C09C4358
:100FF0005FEACC3C00D51C433C60521C102AFFF435
:101000002FAFBDE8F88F0000083C01404438024093
:10101000003001400000024000040240000802408D
:10102000000C024000100240001402400018024070
:10103000001C02400AB1816170470904FBE700000F
:101040000148806870470000200000200248816845
:101050000278114481607047200000200B4810B5D1
:10106000016841F400710160016841F48061016030
:10107000016841F480710160032000F0A9F80F209D
:1010800000F006F800F050F8002010BD003C0240CF
:1010900030B505461F4887B00024016841F01001B3
:1010A0000160006806A900F01000009001A800F09F
:1010B0003BF90498A8B100F057F940001649174AC7
:1010C000B0FBF1F11648491E026040F2E732C0E978
:1010D0000324C0E90114846100F040FB040003D044
:1010E00015E000F041F9E9E70D4800F065FB040068
:1010F0000DD1362000F03EF8102D07D200222946EF
:10110000362000F045F80748056000E0012407B0EC
:10111000204630BD4038024040420F0000100040E1
:10112000A403002024000020114808B5016841F400
:1011300080410160006800F4804000900C48001F6E
:10114000016841F0805101600068002200F0805089
:1011500000900F21901E00F01BF805210022084688
:1011600000F016F8BDE80840052000F003B80000C4
:1011700044380240002809DB00F01F0201219140A1
:101180004009800000F1E020C0F800117047000025
:10119000F0B40E4B1B680C46C3F30223C3F10705E2
:1011A000042D00D90425191D072901D2002300E0D0
:1011B000DB1E012606FA05F1491E214099409E409A
:1011C000761E16403143F0BC00F075BD0CED00E01A
:1011D000064900F0070208684FF6FF03184040EA8E
:1011E0000220034A10430860704700000CED00E045
:1011F0000000FA052DE9F0470E46050065D0DFF83E
:101200001481D8F80000F7B200F00700B04207D20E
:1012100088F80070D8F8000000F00700B04254D100
:1012200028683D4C810712D5400703D5206840F45B
:10123000E05020602878000703D5206840F4604023
:1012400020602068A96820F0F0000843206028781A
:10125000C0072DD0304968680839012812D002280B
:1012600013D0032811D00968890700292DDA2168D5
:1012700021F0030101432160FFF7E2FE814641F2C4
:10128000883A0EE009688903EFE709688901ECE70D
:10129000FFF7D6FEA0EB0901514502D90320BDE8B6
:1012A000F0872068696800F00C00B0EB810FEFD187
:1012B000D8F80010404601F00701B14207D9077085
:1012C000006800F00700B04201D00120E7E728786D
:1012D000400705D52068E96820F4E0500843206005
:1012E0002878000706D52068296920F4604040EA84
:1012F000C100206000F048F82168084AC1F30311DA
:10130000515CC8400649086006480068FFF7C0FE07
:101310000020C4E7003C024008380240D02F0008FB
:101320002C000020240000200F2202600C4A1368C9
:1013300003F003034360136803F0F0038360136852
:1013400003F4E053C36012684FF4E05303EAD2029F
:1013500002610448006800F0070008607047000060
:1013600008380240003C024004480549006809680A
:10137000044AC1F38221515CC84070472C00002010
:1013800008380240E02F0008154810B5006810F03A
:101390000C02144813D01449042A0FD0082A0ED185
:1013A0000F4C241F2268236802F03F025B0207D51E
:1013B0002068C0F38810A0FB010106E0084610BDBC
:1013C0002168C1F38811A1FB00010023FEF7ACFFE7
:1013D0002168C1F30141491C4900B0FBF1F010BD87
:1013E000083802400024F400001BB7002DE9F84F34
:1013F00004006ED02078DFF84C93C007A9F10405F3
:101400004AD009F104000168C1F38101012908D023
:101410000068C0F3810002280AD1D9F80000400218
:1014200006D52868800337D560680028E1D033E00E
:101430006068B0F5803F10D0B0F5A02F286810D0BC
:1014400020F480302860286820F4802028606068BC
:10145000A8B1FFF7F5FD06460DE0286840F480309E
:10146000F4E740F480202860F7E700BFFFF7E8FDCD
:10147000801B642873D828688003F7D50CE0FFF739
:10148000DFFD064605E000BFFFF7DAFD801B64289C
:10149000F0D828688003F7D42078DFF8AC82800782
:1014A0004FF0000A3ED5A748001D016811F00C0F4F
:1014B00008D00068C0F3810002280BD1D9F80000E1
:1014C000400207D42868800716D5E068012800D1BB
:1014D00012E033E1E068B8B10120C8F80000FFF77E
:1014E000AFFD064605E000BFFFF7AAFD801B0228FE
:1014F000C0D828688007F7D52868216920F0F8004F
:1015000040EAC10028600DE0C8F800A0FFF798FD90
:10151000064604E0FFF794FD801B02281FD82868C8
:101520008007F7D42078000722D5864F8748616965
:10153000703771B101210160FFF782FD064604E0BA
:10154000FFF77EFD801B022809D838688007F7D591
:101550000EE0C0F800A0FFF773FD064605E082E04C
:10156000FFF76EFD801B02287DD838688007F7D40E
:101570002078400768D5DFF8CCB100270BF13C0B91
:10158000DBF80000C0000BD4DBF8001041F0805104
:10159000CBF80010DBF80000012700F0805000902D
:1015A0006B4E3068C00510D4306840F480703060F5
:1015B000FFF746FD009005E0FFF742FD0099401A55
:1015C000022850D83068C005F6D55E4EA0686C364B
:1015D00001280FD00528306810D020F001003060BD
:1015E000306820F004003060A068B8B1FFF728FD33
:1015F00000900FE0306840F00100F4E740F0040094
:101600003060F7E7FFF71CFD0099411A41F288307E
:10161000814266D830688007F4D50EE0FFF710FDF0
:10162000009007E0FFF70CFD0099411A41F2883065
:10163000814256D830688007F4D42FB1DBF800100F
:1016400021F08051CBF80010A069C8B33D49091DB5
:101650000968C1F3810102294AD00228504607D007
:10166000C8F8600000E03CE0FFF7EAFC04463BE01D
:101670004746C8F86000FFF7E3FC064605E000BFF8
:10168000FFF7DEFC801B02282BD828688001F7D4E6
:10169000D4E907010843A16A2E4A490802EB014137
:1016A000626A41EA8211084394F82C1040EA016111
:1016B000C9F8001001203866FFF7C2FC044606E0B6
:1016C0003EE000BFFFF7BCFC001B022809D82868D9
:1016D0008001F7D534E000BFFFF7B2FC001B022801
:1016E00002D90320BDE8F88F28688001F4D427E0F0
:1016F0000128F7D0D9F80000E26900F48001914296
:101700001CD1226A00F03F01914217D147F6C07107
:10171000626A0140B1EB821F10D1A26A4FF0FF3321
:1017200000F4403103EB5202B1EB024F06D194F8C2
:101730002C1000F07060B0EB016F01D00120D1E7F8
:101740000020CFE70438024000004742800E4742A5
:10175000007000400000FFFF7047704710B50400A4
:1017600003D094F83D0010B107E0012010BD002027
:1017700084F83C00204600F01EF8022084F83D006A
:10178000211D206800F032FA012084F8460084F818
:101790003E0084F83F0084F8400084F8410084F85B
:1017A000420084F8430084F8440084F8450084F83B
:1017B0003D00002010BD704790F83D10012901D078
:1017C00001207047022180F83D100168CA6842F08C
:1017D0000102CA6000681149884214D0B0F1804FFC
:1017E00011D00F4988420ED00E4988420BD00E49C5
:1017F000884208D00D49884205D00D49884202D060
:101800000C49884204D1816801F00701062903D000
:10181000016841F0010101600020704700000140B3
:101820000004004000080040000C0040000401409B
:101830000040014000180040704770B50446006841
:1018400001694FF00005C943890715D4C168C94330
:10185000890711D4E91E0161012020772068806981
:101860008007204602D0FFF7E7FF04E000F098F879
:10187000204600F096F8257720680169C94349079A
:1018800017D4C168C943490713D46FF0040101613B
:10189000022020772068806910F4407F204602D023
:1018A000FFF7CAFF04E000F07BF8204600F079F86B
:1018B000257720680169C943090716D4C168C9435F
:1018C000090712D46FF00801016104202077206815
:1018D000C0698007204602D0FFF7AEFF04E000F0A9
:1018E0005FF8204600F05DF8257720680169C9435C
:1018F000C90617D4C168C943C90613D46FF01001D3
:101900000161082020772068C06910F4407F2046DC
:1019100002D0FFF791FF04E000F042F8204600F00B
:1019200040F8257720680169C943C90708D1C16813
:10193000C943C90704D1891E0161204600F032F86D
:1019400020680169C943090609D4C168C943090669
:1019500005D46FF0800101612046FFF7FDFE20688D
:101960000169C943490609D4C168C943490605D478
:101970006FF040010161204600F01EF82068016907
:10198000C94389060BD4C168C943890607D46FF0DF
:10199000200101612046BDE87040FFF7DEBE70BD4A
:1019A0007047704700680349884201D1FFF74EBB7A
:1019B00070470000001000407047FEE70F4810B568
:1019C0000D4901600321416000214FF40022816034
:1019D000C0E903124FF440124261017641768176EC
:1019E000C17601774177FFF7ACF8002803D0BDE856
:1019F0001040FEF726BE10BD0064004054030020D6
:101A00000F4810B50D4901600321416000214FF4DA
:101A1000C0228160C0E903124FF4A0024261017646
:101A200041768176C17601774177FFF78AF8002801
:101A300003D0BDE81040FEF704BE10BD00680040B2
:101A40007C03002010B596B01C2211496846FEF7B1
:101A5000E2FC0021684600F0A0F90E4C0C491C2263
:101A6000A0601C3107A8FEF7D6FC002107A800F0F3
:101A700094F90749E0601C2238310EA8FEF7CBFC30
:101A800000210EA800F089F9206116B010BD0000F9
:101A90007C2F00080800002070B586B0142168462D
:101AA000FEF7EBFC16480024016841F002010160DA
:101AB000016801F002010591016841F00101016036
:101AC000016801F001010591016841F080010160A8
:101AD00000680C4E00F080004FF4806505900022F5
:101AE00029463046FFF7A6FA01200095CDE901040A
:101AF000694630460394FFF7A5F906B070BD0000B3
:101B000030380240001C0240FEE7FEE7704700004C
:101B100010B5502080F31188BFF34F8FBFF36F8F44
:101B200000F026FE18B104494FF0805008600020F4
:101B300080F3118810BD000004ED00E030B593B0D3
:101B400030216846FEF799FC14210CA8FEF795FC9D
:101B50001D480025016841F080510160006800F0D7
:101B6000805011901948016841F48041016000687B
:101B7000022400F4804011900120009000040190A4
:101B80008001CDE9064006200890A820CDE909048F
:101B900004200B906846FFF729FC08B172B6FEE7F7
:101BA0000CA90F2081E831004FF4A0500F904FF4A2
:101BB0008050109005210CA8FFF71CFB002801D0D5
:101BC00072B6FEE713B030BD4038024000700040EE
:101BD0000248016841F470010160704788ED00E03F
:101BE0000148FFF72ABE0000A4030020F0B50268F8
:101BF000254C264D264E274F274B4FF0804CA042B8
:101C000009D0604507D0A84205D0B04203D0B84201
:101C100001D0984204D122F0700E4A6842EA0E02C6
:101C2000A0421BD0604519D0A84217D0B04215D0B1
:101C3000B84213D0984211D0184DA8420ED0184D7A
:101C4000A8420BD0174DA84208D0174DA84205D086
:101C5000164DA84202D0164DA84203D122F4407579
:101C6000CA682A434D6922F080022A4302608A68CA
:101C7000C2620A688262A04201D0984201D1096919
:101C8000016301214161F0BD0000014000040040FA
:101C900000080040000C00400004014000400140EA
:101CA000004401400048014000180040001C004072
:101CB00000200040FEE70907090E002804DB00F1C0
:101CC000E02080F80014704700F00F0000F1E020E1
:101CD00080F8141D7047000000B58BB00020012172
:101CE000CDE90601059000900190029003900490C8
:101CF0000E20CDE9081069460548FEF729FD0221AE
:101D00000348FEF7A4FC0248FFF768F80BB000BDDB
:101D10005403002000B58BB001220E210020079251
:101D2000CDE9051003900490CDE9082100900190C1
:101D3000029069460548FEF70BFD02210348FEF7B5
:101D400086FC0248FFF74AF80BB000BD7C03002078
:101D5000FFF784F9FFF7F2FEFFF79EFEFFF750FE54
:101D6000FFF72CFEFFF7B8FFFFF7D4FFFFF76AFE7F
:101D700000F00EF8FEE701460020842900D0C81CC0
:101D8000704710B500B9012000F08EFB002010BD97
:101D900010B500F0AFFB002010BD7FB50D46044626
:101DA0004169B0F9080081B1A16971B1FFF7E3FFA2
:101DB000D4E905128DE80700D4E900102B4622690A
:101DC00000F0ABFC039004B070BDFFF7D4FF03A993
:101DD000CDE90001208A2B4682B2D4E9001000F040
:101DE0006FFC012801D00020EDE70398EBE700002D
:101DF0000FB42D482DED020B10B52DED048B30EEF8
:101E0000C08A8DED098A0E9C844218DA27488442E4
:101E100015D218EE100A01F035F89FED251B53EC92
:101E2000112B00F047FE41EC190B204601F02AF877
:101E300053EC192B00F096FD00F062FD0E909DED25
:101E40000A0A38EE400A10EE100A01F01BF89FED66
:101E50001A1B53EC112B00F02DFE41EC190B0D98C1
:101E600001F010F853EC192B00F024FE9DED0B0A45
:101E7000DDED0C0A9DED0E1A20EE080A41EC190B5F
:101E800000EE810A10EE100A00F0FCFF53EC192B53
:101E900000F068FD00F034FDBDEC048B00EE100A8C
:101EA00010BC5DF81CFB000000007A4400007AC4FE
:101EB000000000000000E03F0000000000000040C3
:101EC000704700002DE9F041184C0F460546E668C2
:101ED0002068001D00F020FA38B9206890F82C1016
:101EE00001208840216981432161681C07D137B1F5
:101EF0002168BDE8F0410E48091D00F051BA206884
:101F00003544B5424560216805D2A06BBDE8F0417B
:101F1000091D00F02DBA606B091D00F029FAA06AB6
:101F2000854200D2A562BDE8F081000030000020AB
:101F3000C80400202DE9F041054600F03DFA2E4C82
:101F4000A068401CA06020682C4F10B1606940B3AD
:101F50002DE02560A068012829D1002606EB860027
:101F600007EB800000F0F6F9761C072EF6D3234825
:101F70008C3000F0EFF92148A03000F0EBF91F4859
:101F8000B43000F0E7F91D48C83000F0E3F91B4811
:101F9000DC3000F0DFF919488C3060631430A06346
:101FA00005E02068E96AC06A884200D82560606A56
:101FB000401C6062E96A0120226988401043206168
:101FC00001EB810007EB8000291D00F0E9F900F02A
:101FD00013FA606900280CD02068E96AC06A884258
:101FE00007D207494FF080500860BFF34F8FBFF30F
:101FF0006F8FBDE8F081000030000020EC0300206E
:1020000004ED00E010B5044690F8510058B10128E5
:102010000CD002280FD0502080F31188BFF34F8FCF
:10202000BFF36F8FFEE7206B00F0FAF92046BDE8A2
:10203000104000F0F5B910BD10484FF47051420740
:1020400006D0C01D0D4920F00700411AC1F570519E
:102050000B4A00230144C2E900030839183A21F071
:10206000070111604B600B600B1AC0E9001393600D
:102070004FF000405360506170470000DC040020C6
:1020800084000020144E154CA6F1C8074FF080586C
:10209000DFF84C9012E000BF00F08EF9F068C568E0
:1020A000281D00F039F9A068401EA0606068401E3D
:1020B000606000F0A1F92846FFF7A4FF60680028DF
:1020C000EAD138680128F9D9C9F80080BFF34F8FE9
:1020D000BFF36F8FF2E70000B4040020300000204F
:1020E00004ED00E02DE9F0479A46DDE909848146D8
:1020F0006FF00303206B03EB82021044089E20F074
:102100000707780707D0502080F31188BFF34F8F5F
:10211000BFF36F8FFEE7002561B1002023180A5C32
:1021200083F834200A5C12B1401C1028F6D384F8DE
:10213000435001E084F83450072E00D30626E662AF
:10214000C4E91165201D00F010F904F1180000F039
:102150000CF92461C6F107006462A061E56484F8AB
:10216000505052464946384600F0C0F82060B8F159
:10217000000F01D0C8F80040BDE8F08730B5114924
:1021800000E011460A688242FBD34B685C18844227
:1021900003D1406818444860084643681C189442BC
:1021A00009D1084C183C2468A24209D052681A444C
:1021B00042600A6812680260814200D0086030BD47
:1021C0000460F9E7840000200648416B096829B1E2
:1021D000416BC968C9684968816270474FF0FF3137
:1021E000FAE700003000002008484068401C4FF02B
:1021F000500080F3118804D0BFF34F8FBFF36F8F6F
:10220000FEE7BFF34F8FBFF36F8FFEE78C00002018
:102210002DE9F0410546002700F0A2F9324E306862
:1022200008B9FFF709FF706905424ED1C5B30835FB
:1022300068070ED005F00700C0F1080005446807E4
:1022400007D0502080F31188BFF34F8FBFF36F8FFB
:10225000FEE72DB37068854237D823481830014611
:102260000C6801E020460C466168A94202D2216850
:102270000029F7D131688C4227D0076821680160B6
:1022800060680837411B10290FD96019420708D030
:10229000502080F31188BFF34F8FBFF36F8FFEE79D
:1022A00013E041606560FFF769FF61687068401A7C
:1022B0007060B268904200D2B06070690143002043
:1022C000C4E90001F068401CF06000F0B7FA78073C
:1022D00007D0502080F31188BFF34F8FBFF36F8F6B
:1022E000FEE73846BDE8F0816C00002010B5031F02
:1022F0004FF080741C601B1F21F001011960191F31
:10230000044B0B6014390A60091F6FF00202443855
:102310000A6010BDE9210008D0E9013201699A6024
:10232000D0E901235A604A68824201D182684A603A
:10233000002202610868401E0860086870470000BB
:10234000034B036003F15400086080201060704765
:102350000001002000F108014FF0FF32C0E9011236
:10236000C160016100210160704700210161704777
:1023700030B50B685A1C02D000F1080202E0026975
:1023800004E02246546825689D42FAD953684B60A0
:1023900099608A60516008610168491C016030BD24
:1023A00042684A6093688B609368596091600861E5
:1023B0000168491C01607047502080F31188BFF309
:1023C0004F8FBFF36F8F0A494868401C486001284F
:1023D0000CD10848006810F0FF0F07D0502080F3A0
:1023E0001188BFF34F8FBFF36F8FFEE77047000078
:1023F0008C00002004ED00E00849486828B1401E28
:10240000486001D180F311887047502080F3118813
:10241000BFF34F8FBFF36F8FFEE700008C000020EB
:1024200070B500282AD0164DA0F1080460686969CB
:10243000084207D1502080F31188BFF34F8FBFF3BC
:102440006F8FFEE722683AB1502080F31188BFF306
:102450004F8FBFF36F8FFEE78843606000F080F816
:1024600060686968084468602046FFF787FE28694D
:10247000401C2861BDE8704000F0E0B970BD00006C
:102480006C0000204FF0E0200021016181610549CE
:102490004FF47A720968B1FBF2F1491E41610721DC
:1024A000016170472C00002010B5020014D00F48C5
:1024B000006B38B1502080F31188BFF34F8FBFF30A
:1024C0006F8FFEE700F04CF800211046FFF7FAFC92
:1024D00000F0B4F9002807D105494FF0805008609A
:1024E000BFF34F8FBFF36F8F10BD0000300000208F
:1024F00004ED00E010B586B00024039405AA04A9F9
:1025000003A80494FFF71CFFDDE903010094CDE963
:10251000011000230EA11048059A00F0FEF80F49A3
:102520000028C86211D0502080F31188BFF34F8F6C
:10253000BFF36F8F4FF0FF30886201204861CC609D
:1025400006B0BDE8104000F041B806B010BD000074
:1025500049444C4500000000852000083000002060
:102560000248016B491C01637047000030000020E5
:102570001448016B11B10121C16170470021C16193
:102580000169B1FA81F1C1F11F0101EB81020E492C
:1025900051F822306BB101EB820101F108034A6866
:1025A00052684A609A4201D152684A60D16801601B
:1025B0007047502080F31188BFF34F8FBFF36F8FA8
:1025C000FEE7000030000020EC0300201CB5374877
:1025D0000168374A914207D1502080F31188BFF338
:1025E0004F8FBFF36F8FFEE700683149491E884265
:1025F00007D1502080F31188BFF34F8FBFF36F8F47
:10260000FEE72C4908780190FF20087008788DF8C3
:1026100000009DF800009DF8002000F0F0009042BE
:1026200007D0502080F31188BFF34F8FBFF36F8F17
:10263000FEE79DF80000204C00F0500020700720BD
:10264000A06005E09DF8002052008DF80020401E9B
:102650009DF800201206F5D4A060032807D0502072
:1026600080F31188BFF34F8FBFF36F8FFEE74FF4F6
:102670004070A060019808700C482030016841F457
:1026800070010160016841F070410160FFF7FAFEDE
:1026900000206060FDF7ECFD0848016841F0404112
:1026A0000160FDF7D1FD00201CBD000000ED00E041
:1026B00071C20F4100E400E08C00002034EF00E024
:1026C0002DE9FF5F8346DDE90E87994616468A4667
:1026D0009000FFF79DFD05001CD05420FFF798FDEA
:1026E000040014D00020256384F85100CDE9024095
:1026F000CDE900874B46324651465846FFF7F2FC7B
:102700002046FFF717FC012004B0BDE8F09F2846E3
:10271000FFF786FE4FF0FF30F6E7F0B585B0DDE954
:102720000B640A9DA6B1DCB15427009726630226EC
:1027300084F85160002604AFCDE90246CDE9005788
:10274000FFF7D0FC2046FFF7F5FB049805B0F0BD7D
:10275000502080F31188BFF34F8FBFF36F8FFEE7D8
:10276000502080F31188BFF34F8FBFF36F8FFEE7C8
:102770002DE9F0412F4C0026206B28B1A069401CA8
:10278000A0613046BDE8F081E5686D1CE56013D1BD
:10279000606B006838B1502080F31188BFF34F8F11
:1027A000BFF36F8FFEE7606BA16B6163A063206A6C
:1027B000401C2062FFF708FDA06ADFF87C8085429C
:1027C00009D3606B0068A0B1606BC068C7687868A7
:1027D000854211D2A0622068C06A00EB800158F8DF
:1027E0002100012800D90126E0690028C9D001266E
:1027F000C7E74FF0FF30EDE7381DFFF78DFDB86AF2
:1028000018B107F11800FFF787FDF96A0120226966
:1028100088401043206101EB810108EB8100391DE4
:10282000FFF7BEFDF86A2168C96A8842C9D301264C
:10283000C7E7000030000020EC0300202DE9F0473E
:102840002C4D00242746286B38B1FFF7B5FD286BC7
:10285000401E2863286B40B146E0502080F3118869
:10286000BFF34F8FBFF36F8FFEE7A968224E0120A1
:10287000D1B3A6F1B40980463068E8B1F068C46805
:1028800004F11800FFF748FD201DFFF745FDE06A41
:102890002A6908FA00F11143296100EB800109EB74
:1028A0008100211DFFF77CFDE06A2968C96A884222
:1028B000E2D3C5F81C80DFE70CB1FFF785FCAC69FB
:1028C00044B14646FFF754FF00B1EE61641EF9D1F2
:1028D0000020A861E86938B1084901273807086075
:1028E000BFF34F8FBFF36F8FFFF786FD3846BDE80C
:1028F000F087000030000020A004002004ED00E07C
:1029000021F00042A2F16052B2F5801F01F00043B5
:1029100028BFD2F17F6C0BD95FEA001C43EAC202E8
:1029200042EB507018BF704728BF20F0010070477D
:10293000B2F5801FBCBF184670474FEA410C1CF52A
:10294000001F02D2084600F013BB70B500F05CF91E
:1029500000000089FFF7F6BF4FF00040A0F58000AF
:102960007047000010B591EA030F48BF83F00043A1
:1029700000F1A681841A71EB030C05D2121943EB06
:102980000C03001B61EB0C01DFF824E14FEA11544A
:10299000A4EB135C1EEA430F18BF9EEA445F73D09A
:1029A00023EA0E03DCF1200E21EA045143F48013E4
:1029B00032D322FA0CFE10EB0E0023FA0CFE41EB90
:1029C0000E01CCF1200E03FA0EFE10EB0E0051F1B9
:1029D0000001B1F5801FCCF1200E32D201EB045181
:1029E00012FA0EF2BDE8104058BF7047401C38BFC5
:1029F0005FEA420218BF7047002814BF20F00100B0
:102A000041F100014FEA410313F5001F38BF704741
:102A1000A1F1C04100F046B9012A43EB0302ACF139
:102A2000200CDCF11F0E32BF4FF0000E23FA0CF326
:102A300010EB030041EB0451B4EB115FD0D0A1EBDC
:102A4000045101F5801149085FEA300001EB04519F
:102A50000ED350F1000038BF12FA0EFE08D1BDE8C7
:102A60001040C9E7401C38BF5FEA4202CAD1C3E741
:102A7000BDE810404FEA410313F5001F38BF70470F
:102A8000A1F1C04100F00EB99EEA445F08D011EAFE
:102A90005E0FBDE8104004BF01F000410020704708
:102AA000BDE8104070B500F0AFF800BF64FBBE3E5B
:102AB0000000E0FFDFF848C170B51CEA111E1EBF20
:102AC0001CEA13159EEA0C0F95EA0C0F00F06F80BC
:102AD00081EA030423EA4C134EEAD47E21EA4C1126
:102AE00041F4801143F48013AE44A1FB024CA0FBDF
:102AF0000365AEF17F7E361955EB0C05A1FB034C47
:102B00004CF10003A0FB021C16EB0C06654153F1CF
:102B10000003094218BF46F0010613F4007F0BD1F1
:102B20004FEA03314FEA0530340341EA155140EAD8
:102B300016506FF003020AE04FEAC3214FEAC520A6
:102B4000F40241EA555140EA56506FF0020202EB9E
:102B50002E4201EB025585EACE710AD05FEA440CA1
:102B600018BF24F0004450F1000041F1000120EAB8
:102B7000D47040F2FE7C624500D270BDA84214BF02
:102B80004FF080444FF04044002E08BF0024BEF1B7
:102B9000806FA8BFA1F1C041BDE8704080F2828083
:102BA0004FF0000001F1C04101F0004170479EEA82
:102BB0000C0F0CEA131518BF95EA0C0F06D04FF056
:102BC000000081EA030E0EF0004170BD00F01CF819
:102BD0008900013E00F007B800F009B84FEA430C45
:102BE0005FEA5C5C08D081EA030100F05BB84FEA61
:102BF000410C5FEA5C5CF6D14FF000000149704780
:102C00000000FF070000F87F0EF1020E2EF0030E09
:102C10005EF8046B364205D4012A43EB030515F533
:102C2000001F12D8012841EB010C1CF5001F0CD825
:102C30000ED14FEAD17C15F5001F0CEB4C0C0CF1BA
:102C4000020C08BF4CEBD37C04E04FF0080C01E011
:102C50004FEAD37C0CEB4C0526FA05F606F0070686
:102C6000B6F1040C06D20EEB860CBDE870404CF0B9
:102C7000010C6047DFE80CF0090B02024FF0004145
:102C80004FF00000A1F5002170BD19461046012843
:102C900051EB010418BFD4F5001484BF002001F0EB
:102CA000004170BD0808A0F500114FEA31017047DE
:102CB00010B591EA030F48BF83F000433FF55AAEC9
:102CC000841A71EB030C07D212198CF0004C43EB01
:102CD0000C03001B61EB0C01DFF8A4E14FEA115477
:102CE000A4EB135C1EEA430F18BF9EEA445F00F09A
:102CF000B08023EA6E03524221EA0451C3EB6E0313
:102D000038BF5B1EDCF1200E25D322FA0CFE10EB3F
:102D10000E0043FA0CFE41EB0E01CCF1200E03FA3B
:102D20000EFE10EB0E0051F10001CCF1200E29D463
:102D300012FA0EF201EB0451BDE8104058BF704783
:102D4000401C1CBFB2F1004F704700280CBF491C4B
:102D500020F00100704712EB020E43EB030218BF94
:102D60004FF0010E4EEA4202ACF1200CDCF11E0ED7
:102D700054D943FA0CFE10EB0E0051F1FF31CCF1A7
:102D80001E0ED5D50EF1010E12FA0EFE404141EB9A
:102D9000010101EB445C5FEA5C5C10D910EBDE7072
:102DA00001EB045138BFBEF1004FBDE8104018BF21
:102DB000704700280CBF491C20F00100704730D23A
:102DC0004FEAD42C11F5001124F400641BD0B1FAA1
:102DD00081F20B3AA41AA41ED2F12003914030FADA
:102DE00003F31943904001EBCC71002C01EB04512B
:102DF000BDE81040A8BF704701F1C0414FF000008E
:102E000001F000417047B0FA80F310FA03F100D1ED
:102E100010BDE41A173C4805C90AE4E701EB045168
:102E200010BD491001EB0451BDE810404FEA3000DD
:102E300002E04FF0000170474A0008BF0042F8D09E
:102E4000B2F5001F28BF704701F000414FF00000AD
:102E500070479EEA445F07D011EA5E0FBDE810405C
:102E600004BF002100207047BDE8104070B5FFF797
:102E7000CBFE00BF40DFF63E83F0004110467047B6
:102E80000000E0FF43004FEAD30C4FEA3C0C434004
:102E90001FBF40070CF1605113F0FE4F70471CF04C
:102EA000006F03D100200CF0004170470CF000438C
:102EB00043EA507010B540EACC0000F00EF800BFB5
:102EC000000000924FEA0001FFF7ECBE4FF0004116
:102ED0004FF00000A1F5002170470EF1020E2EF018
:102EE000030E5EF8044B244204D44FEA4102B2F1CF
:102EF0007F4F11D84FEA4003B3F17F4F0CD80ED16A
:102F00004FEAD07CB2F17F4F0CEB4C0C0CF1020C71
:102F100008BF4CEBD17C04E04FF0080C01E04FEA15
:102F2000D17C0CEB4C0324FA03F404F00704B4F155
:102F3000040C06D20EEB840CBDE810404CF0010CE2
:102F40006047DFE80CF0070802024FF00040A0F5F0
:102F5000800010BD0846420018BFD2F1807288BFC1
:102F600000F0004010BD4FF04070E1EE100A7047D5
:102F7000FF2141EAD050C005704700000030000832
:102F80004D05000800000000000000008000000067
:102F90000000000000000000E82F000843050008C2
:102FA00000000000000000008000000000000000A1
:102FB00000000000F82F000847060008000000008D
:102FC0000000000080000000000000000000000081
:102FD00000000000000000000102030406070809C9
:102FE000000000000102030442756C6C65745F729E
:102FF0006F7461746500000047696D62616C000068
:1030000042756C6C65745F73686F6F7400000000CC
:10301000303000080000002098000000C4010008C3
:10302000C830000898000020A8460000E001000811
:1030300000000000000000000000FA430000FA4316
:103040000000000000000000000000000000000080
:103050000100000010000000000000000024F40047
:103060000000000000000000000000000000000060
:103070000000000000000000000000000000000050
:103080000000000000000000000000000000000040
:103090000000000000000000000000000000000030
:1030A0000000000000000000000000000000000020
:1030B0000000000000000000000000000000000010
:0830C000AAAAAAAA0000000060
:040000050800018965
:00000001FF
