:020000040800F2
:1000000080070020290200086716000881150008F3
:10001000651600081F040008E11A0008000000002F
:100020000000000000000000000000006B16000847
:10003000DD04000800000000691600086D160008C5
:10004000430200084302000843020008430200087C
:10005000430200084302000843020008430200086C
:10006000430200084302000843020008430200085C
:10007000430200084302000843020008430200084C
:10008000430200084302000843020008430200083C
:10009000430200084302000843020008430200082C
:1000A000430200084302000843020008430200081C
:1000B000430200084302000843020008430200080C
:1000C00043020008430200084302000843020008FC
:1000D00043020008D51A0008430200084302000842
:1000E00043020008430200084302000843020008DC
:1000F00043020008430200084302000843020008CC
:1001000043020008430200084302000843020008BB
:1001100043020008430200084302000843020008AB
:1001200043020008430200082104000843020008BB
:10013000430200084302000843020008430200088B
:10014000430200084302000843020008430200087B
:1001500043020008430200082D040008430200087F
:10016000430200084302000843020008430200085B
:100170004302000843020008430200080000000098
:10018000430200084302000800F002F800F03CF8C7
:100190000AA090E8000C82448344AAF10107DA45E2
:1001A00001D100F031F8AFF2090EBAE80F0013F0F8
:1001B000010F18BFFB1A43F0010318479C190000F8
:1001C000BC190000103A24BF78C878C1FAD8520789
:1001D00024BF30C830C144BF04680C6070470000C1
:1001E0000023002400250026103A28BF78C1FBD840
:1001F000520728BF30C148BF0B6070471FB501F0E0
:1002000095FC1FBD10B510BD00F0CFF81146FFF7EB
:10021000F5FF01F077FC00F0EDF803B4FFF7F2FF13
:1002200003BC00F0F5F80000094880470948004782
:10023000FEE7FEE7FEE7FEE7FEE7FEE7FEE7FEE796
:10024000FEE7FEE704480549054A064B70470000F3
:1002500005170008890100088001002080070020A0
:10026000800300208003002053EA020C00F0698024
:100270002DE9F04B4FF00006002B1FBFB3FA83F5BA
:1002800003FA05F424FA05F65E4012BF1643B2FAEB
:1002900082F502FA05F4C5F120051EBF22FA05FC1D
:1002A00044EA0C04203556EA044C4FEA144418BFC3
:1002B000641C4FF000084FF00009904271EB030CF2
:1002C00039D3002919BFB1FA81F701FA07F6B0FA5C
:1002D00080F700FA07F6C7F120071EBF20FA07FCD7
:1002E00046EA0C062037B6FBF4FCA7EB0507103FE7
:1002F00007F01F0BCBF120060CFA0BFB2CFA06F6CD
:1003000044BFB3460026202FA4BF5E464FF0000B2B
:100310005BEA060C08BF4FF0010B19EB0B09ABFBB6
:10032000027C48EB0608C01B06FB02CC0BFB03CC8F
:1003300071EB0C01C1E70B46024641464846BDE859
:10034000F08B13B54FF000004FF00001AFF30080C9
:10035000BDE81C4070474FF0000200B513469446BC
:100360009646203922BFA0E80C50A0E80C50B1F10D
:100370002001BFF4F7AF090728BFA0E80C5048BF21
:100380000CC05DF804EB890028BF40F8042B08BFBF
:10039000704748BF20F8022B11F0804F18BF00F8BB
:1003A000012B7047704770477047754600F02CF876
:1003B000AE4605006946534620F00700854618B052
:1003C00020B5FFF73FFFBDE820404FF000064FF09B
:1003D00000074FF000084FF0000B21F00701AC467A
:1003E000ACE8C009ACE8C009ACE8C009ACE8C00999
:1003F0008D46704710B50446AFF300802046BDE837
:100400001040FFF70ABF000000487047200100209D
:1004100001491820ABBEFEE7260002007047FEE748
:10042000014800F0B9B8000060000020014800F069
:10043000B3B80000C000002001681823CAB2103A07
:10044000B2FBF3F2054B6FF30901032A9B5CC36512
:1004500000D9091D8165084670470000361B000859
:1004600010B5014600208B698A6A4FF0C07453B101
:10047000B3F5005F15D072B1012A0CD0022A0AD060
:10048000032A09D104E01AB1012A06D0022A03D1B5
:10049000C96AC90100D5012010BDC96AA142FAD0BC
:1004A00010BD002AF7D0012AF2D0022AF3D0032A85
:1004B000F3D010BD30B50468256825F4802525608B
:1004C000046863608368402B036803D09960006808
:1004D000C26030BD9A600068C16030BD704772B6BE
:1004E000FEE72DE9F0410446876D00F0C5FA0646A7
:1004F00094F835000025022806D08020606584F835
:1005000034500120BDE8F0812068016821F0160117
:1005100001602068416921F080014161206C08B9C7
:10052000A06C20B12068016821F0080101602068FA
:10053000016821F0010101600CE000F09DFA801BD0
:10054000052807D920206065032084F8350084F849
:100550003450D7E720680068C007EED194F85C10EB
:100560003F208840B860012084F8350084F834507A
:100570000020C7E790F83510022903D0802141659B
:1005800001207047052180F835100068016821F0CE
:1005900001010160002070472DE9F84304464FF047
:1005A0000009CDF8009063484FF41651A56D00681E
:1005B000B0FBF1F72E6894F85C10082000FA01F106
:1005C00031420FD021680A6852070BD50A6822F021
:1005D00004020A6094F85C108840A860606D40F0E6
:1005E0000100606594F85C104FF0010808FA01F012
:1005F000304208D021684969090604D5A860606DB9
:1006000040F00200606594F85C100420884030429D
:1006100008D021680968890704D5A860606D40F09A
:100620000400606594F85C1010208840304218D0B7
:1006300021680968090714D5A86020680168490382
:1006400004D50068000308D5A16C07E00168C9055E
:1006500003D4016821F008010160216C09B1204632
:10066000884794F85C1020208840304231D02168BF
:100670000968C9062DD5A86094F8350005282068BA
:10068000016806D0490347D5006800031DD4616C9A
:100690001CE021F0160101602068416921F0800111
:1006A0004161206C08B9A06C20B12068016821F07C
:1006B0000801016094F85C103F208840A86084F82D
:1006C000358084F83490216D1FE0E16B09B120463C
:1006D0008847606D00282BD0606DC00714D00520BE
:1006E00084F835002068016821F00101016000985C
:1006F000401C0090B84203D820680068C007F6D1BB
:1007000084F8358084F83490E16C002910D001B071
:100710002046BDE8F04308470168C905D5D4016803
:1007200021F01001016084F8358084F83490CCE722
:10073000BDE8F8830C0000202DE9F041044600F0EC
:100740009BF906465CB1022084F83500002584F848
:1007500034502068016821F0010101600DE00120A2
:10076000BDE8F08100F088F9801B052805D920201C
:100770006065032084F83500F2E720680068C00750
:10078000F0D12268116820480140D4E901031843E0
:10079000D4E903363343184363691843A369184304
:1007A000E3691843236A18430843616A042903D1A3
:1007B000D4E90B1319430843106020684069666A46
:1007C00020F0070130460E43012704280CD1A06A0F
:1007D0000643E06A40B12046FFF742FE20B14020C8
:1007E000606584F83570BAE7206846612046FFF7F7
:1007F00023FE94F85C203F2191408160656584F878
:1008000035700020ACE700003F8010F02DE9F0418A
:100810000446866D90F83400002501280DD0012093
:1008200084F8340094F835700020012F07D084F844
:10083000340002252846BDE8F0810220FBE70227AC
:1008400084F8357060652046FFF734FE94F85C103C
:100850003F208840B0602068016841F016010160C7
:10086000206C20B12068016841F008010160206817
:10087000016841F001010160DCE700002DE9F84F5B
:10088000DFF8BCA10022012503264FF00F090AF171
:10089000040BAAF1040E00BF0B6805FA02F4234012
:1008A000A34270D10F7907F00307012F01D0022F67
:1008B00016D187684FEA420806FA08FC27EA0C07B7
:1008C000D1F80CC00CFA08FC4CEA070CC0F808C0C0
:1008D0004768A7430C79C4F3001494403C43446038
:1008E0000C79E443A4070AD0C4684FEA420C06FA24
:1008F0000CF7BC438F6807FA0CF72743C7600C79E5
:1009000004F00304022C12D1D40800EB840CDCF8B0
:1009100020405707FF0E09FA07F824EA0804D1F827
:10092000108008FA07F848EA0408CCF82080046828
:100930004FEA420C06FA0CF7BC430F7907F00307A5
:1009400007FA0CF7274307604C6814F4403F70D057
:100950003C4C276847F480472760246822F003074F
:1009600004F480440094384C07EB040CDCF808488D
:1009700097074FEA177809FA08F7BC43334FB84294
:1009800002D1002724E054E0314FB84201D10127C1
:100990001EE0304FB84201D1022719E02E4FB84275
:1009A00001D1032714E02D4FB84201D104270FE0F5
:1009B0002B4FB84201D105270AE02A4FB84201D196
:1009C000062705E0284FB84201D1072700E0082795
:1009D00007FA08F72743CCF80878DAF800405746BA
:1009E000D1F804C09C435FEACC2C00D51C433C608A
:1009F000DBF800405F46D1F804C09C435FEA8C2CD2
:100A000000D51C433C60DEF800407746D1F804C0B6
:100A10009C435FEA8C3C00D51C433C60084F083F78
:100A20003C68D1F804C09C435FEACC3C00D51C4331
:100A30003C60521C102AFFF42FAFBDE8F88F000075
:100A4000083C0140443802400030014000000240B0
:100A50000004024000080240000C02400010024066
:100A60000014024000180240001C02400AB18161DB
:100A700070470904FBE700000148806870470000E8
:100A800000000020024881680278114481607047AC
:100A9000000000200B4810B5016841F400710160AE
:100AA000016841F480610160016841F48071016076
:100AB000032000F06FF80F2000F006F800F024F893
:100AC000002010BD003C024070B50D4D04464FF4AF
:100AD0007A712878B1FBF0F00A490968B1FBF0F0AF
:100AE00000F00CFB48B9102C07D200222146501E02
:100AF00000F030F800206C6070BD012070BD000077
:100B0000000000200C0000200A4808B5016841F4EC
:100B100080410160006800F4804000900548001F9B
:100B2000016841F080510160006800F08050009041
:100B300008BD000044380240002809DB00F01F0215
:100B4000012191404009800000F1E020C0F800112F
:100B500070470000F0B40E4B1B680C46C3F3022331
:100B6000C3F10705042D00D90425191D072901D259
:100B7000002300E0DB1E012606FA05F1491E214094
:100B800099409E40761E16403143F0BC00F0A9BF4C
:100B90000CED00E0064900F0070208684FF6FF037D
:100BA000184040EA0220034A1043086070470000E2
:100BB0000CED00E00000FA052DE9F0470E460500B7
:100BC00065D0DFF81481D8F80000F7B200F0070014
:100BD000B04207D288F80070D8F8000000F0070093
:100BE000B04254D128683D4C810712D5400703D547
:100BF000206840F4E05020602878000703D5206882
:100C000040F4604020602068A96820F0F0000843AC
:100C100020602878C0072DD030496868083901283D
:100C200012D0022813D0032811D00968890700299F
:100C30002DDA216821F0030101432160FFF71CFF39
:100C4000814641F2883A0EE009688903EFE70968B6
:100C50008901ECE7FFF710FFA0EB0901514502D92C
:100C60000320BDE8F0872068696800F00C00B0EB55
:100C7000810FEFD1D8F80010404601F00701B142D2
:100C800007D90770006800F00700B04201D00120CA
:100C9000E7E72878400705D52068E96820F4E050A8
:100CA000084320602878000706D52068296920F4C9
:100CB000604040EAC100206000F038F82168084A2E
:100CC000C1F30311515CC84006490860064800683A
:100CD000FFF7FAFE0020C4E7003C0240083802405B
:100CE0003E1B00080C0000200400002004480549B9
:100CF00000680968044AC1F38221515CC84070470A
:100D00000C000020083802404E1B0008044805492A
:100D100000680968044AC1F34231515CC840704719
:100D20000C000020083802404E1B0008154810B582
:100D3000006810F00C02144813D01449042A0FD094
:100D4000082A0ED10F4C241F2268236802F03F02AC
:100D50005B0207D52068C0F38810A0FB010106E004
:100D6000084610BD2168C1F38811A1FB00010023D2
:100D7000FFF77AFA2168C1F30141491C4900B0FB31
:100D8000F1F010BD083802400024F40040787D01E5
:100D90002DE9F84F04006ED02078DFF84C93C0079F
:100DA000A9F104054AD009F104000168C1F38101E9
:100DB000012908D00068C0F3810002280AD1D9F8BF
:100DC0000000400206D52868800337D560680028F7
:100DD000E1D033E06068B0F5803F10D0B0F5A02FCF
:100DE000286810D020F480302860286820F4802003
:100DF00028606068A8B1FFF73FFE06460DE028684E
:100E000040F48030F4E740F480202860F7E700BF2A
:100E1000FFF732FE801B642873D828688003F7D55B
:100E20000CE0FFF729FE064605E000BFFFF724FEB1
:100E3000801B6428F0D828688003F7D42078DFF876
:100E4000AC8280074FF0000A3ED5A748001D01681C
:100E500011F00C0F08D00068C0F3810002280BD1FC
:100E6000D9F80000400207D42868800716D5E0684A
:100E7000012800D112E033E1E068B8B10120C8F8E0
:100E80000000FFF7F9FD064605E000BFFFF7F4FD9F
:100E9000801B0228C0D828688007F7D528682169F8
:100EA00020F0F80040EAC10028600DE0C8F800A07A
:100EB000FFF7E2FD064604E0FFF7DEFD801B022897
:100EC0001FD828688007F7D42078000722D5864FDE
:100ED00087486169703771B101210160FFF7CCFD6E
:100EE000064604E0FFF7C8FD801B022809D83868D1
:100EF0008007F7D50EE0C0F800A0FFF7BDFD06465D
:100F000005E082E0FFF7B8FD801B02287DD8386835
:100F10008007F7D42078400768D5DFF8CCB10027E8
:100F20000BF13C0BDBF80000C0000BD4DBF8001029
:100F300041F08051CBF80010DBF80000012700F0F1
:100F4000805000906B4E3068C00510D4306840F47B
:100F500080703060FFF790FD009005E0FFF78CFD9A
:100F60000099401A022850D83068C005F6D55E4E68
:100F7000A0686C3601280FD00528306810D020F00A
:100F800001003060306820F004003060A068B8B123
:100F9000FFF772FD00900FE0306840F00100F4E7C9
:100FA00040F004003060F7E7FFF766FD0099411A52
:100FB00041F28830814266D830688007F4D50EE06F
:100FC000FFF75AFD009007E0FFF756FD0099411A20
:100FD00041F28830814256D830688007F4D42FB16E
:100FE000DBF8001021F08051CBF80010A069C8B3E5
:100FF0003D49091D0968C1F3810102294AD002282F
:10100000504607D0C8F8600000E03CE0FFF734FD30
:1010100004463BE04746C8F86000FFF72DFD064652
:1010200005E000BFFFF728FD801B02282BD82868A9
:101030008001F7D4D4E907010843A16A2E4A490880
:1010400002EB0141626A41EA8211084394F82C10D4
:1010500040EA0161C9F8001001203866FFF70CFD75
:10106000044606E03EE000BFFFF706FD001B022835
:1010700009D828688001F7D534E000BFFFF7FCFCF1
:10108000001B022802D90320BDE8F88F28688001E0
:10109000F4D427E00128F7D0D9F80000E26900F481
:1010A000800191421CD1226A00F03F01914217D188
:1010B00047F6C071626A0140B1EB821F10D1A26A8B
:1010C0004FF0FF3300F4403103EB5202B1EB024F1B
:1010D00006D194F82C1000F07060B0EB016F01D0D5
:1010E0000120D1E70020CFE704380240000047424A
:1010F000800E4742007000400000FFFF10B5401E08
:10110000B0F1807F01D3012010BD4FF0E024606179
:101110000F21601700F0E5FC0020A061072020618E
:10112000002010BD70477047F8B501680446086894
:10113000CA684B6910F00F0F4FF0000559D003F04B
:10114000010602F49077374365D0C10705D0D10579
:1011500003D5216C41F001012164410705D5D90770
:1011600003D0216C41F002012164810705D5D90724
:1011700003D0216C41F004012164010707D502F07E
:101180002001314303D0216C41F008012164216C1E
:1011900000293AD0800604D5900602D5204600F0FA
:1011A00069FB20684069216CC0F38010090700D4F6
:1011B00060B3204600F029FB20684069400621D535
:1011C0002068143050E8001F21F0400140E8001270
:1011D000002AF5D1A06BA8B16C490165A06BFFF79F
:1011E000C9F9002811D0A06B016D01B0BDE8F04035
:1011F000084783060FD593060DD52046BDE8F84075
:1012000000F038BB2046FFF78EFFF8BD2046FFF701
:101210008AFF2564F8BD266B2023012E79D1C606EE
:1012200077D5D60675D508684868009048694006A5
:1012300040D5A16B086840680004000CEAD0A28D7C
:101240008242E7D9E085C869B0F5807F2DD020685B
:101250000C3050E8001F21F4807140E80012002A91
:10126000F5D12068143050E8001F21F0010140E85A
:101270000012002AF5D12068143050E8001F21F038
:10128000400140E80012002AF5D184F83E30256381
:1012900020680C3050E8001F21F0100140E80012D7
:1012A000002AF5D1A06BFFF71CF9A08DE18D401A43
:1012B00081B229E0A08DE18D401A81B2E08D002835
:1012C000A8D00029A6D020680C3050E8002F22F4C6
:1012D000907240E80026002EF5D12068143050E8C6
:1012E000002F22F0010240E80026002EF5D184F8FC
:1012F0003E30256320680C3050E8002F22F01002A9
:1013000040E80023002BF5D12046FFF70BFFF8BD86
:10131000FFE705062BD5150629D594F83D002128B1
:10132000F5D1A068B0F5805F01D12069B0B1206A25
:10133000411C2162216800784860E08C401E000456
:10134000000CE084E3D12068C16821F08001C16015
:101350002068C16841F04001C160D8E7206A008878
:10136000C0F308004860206A801C2062E5E7400660
:10137000CDD55006CBD5CA68204622F04002CA60BF
:1013800084F83D3000F0FBF8C1E7000015170008B5
:1013900070B5040004D094F83D00002510B106E0BB
:1013A000012070BD84F83C50204600F023F8242032
:1013B00084F83D002068C16821F40051C1602046D6
:1013C00000F0B8FA2068016921F4904101612068B9
:1013D000416921F02A0141612068C16841F400514E
:1013E000C1602564202084F83D0084F83E00002080
:1013F00070BD00002DE9F04186B006461421684614
:10140000FEF7A9FF3949306888426BD1384800247B
:10141000016841F010010160006800F010000590C3
:1014200033481438016841F002010160016801F09D
:1014300002010591016841F0010101600068022587
:1014400000F0010005908020CDE9000502AA0327E5
:101450004FF0070882E8900169462648FFF70EFA28
:101460002802CDE9000502AA694682E890012248D7
:10147000FFF704FA224D21484FF000672860C5E9C4
:1014800001744FF48068C5E903486C61AC61EC619C
:101490002C6228466C62FFF74FF908B1FFF71FF87E
:1014A000B563AE63164D154860357830E5E8020740
:1014B0004020A5E81101124845F814496030AC619C
:1014C000EC612C626C62FFF737F908B1FFF707F89F
:1014D0007563002211462520AE63FFF73BFB2520F4
:1014E000FFF72AFB06B0BDE8F081000000100140C4
:1014F00044380240000402400000024040640240C0
:101500006000002090F83E30202B0ED159B152B12E
:1015100090F83C30012B08D0012380F83C300023A8
:10152000036300F08DBA012070470220704700006D
:101530000F4910B5884219D10E4C0F484FF4806105
:101540002278612A02D0622A02D004E0012200E05F
:101550000022FFF78BFA0020206060602081BDE848
:1015600010400A2203490248FFF7CCBF10BD00001B
:101570001C00002010000020001C02407047704733
:10158000FEE700000D4808B5016841F480010160E4
:101590000068002200F48000009011463A20FFF716
:1015A000D9FA3A20FFF7C8FA002211464620FFF781
:1015B000D1FABDE808404620FFF7BEBA30380240F5
:1015C00030B587B014216846FEF7C5FE154801689E
:1015D00041F002010160016801F00201059101681A
:1015E00041F001010160016801F00101059101680C
:1015F00041F0800101600068012200F080000A4D86
:101600009402059021462846FFF730FA0120022176
:101610000094CDE90101039169462846FFF72EF9B0
:1016200007B030BD30380240001C02400C4810B5F5
:101630000A4901604FF4E1314160002181600C22D0
:10164000C160C0E904128161C161FFF7A1FE0028F9
:1016500003D0BDE81040FEF742BF10BD00100140AE
:101660001C000020FEE7FEE770477047FFF70ABA4C
:1016700030B593B030216846FEF76DFE14210CA8FA
:10168000FEF769FE1D480025016841F080510160A8
:10169000006800F0805011901948016841F48041C1
:1016A00001600068022400F4804011900120039042
:1016B00010200490009406940820CDE90750A8203B
:1016C000CDE9090404200B906846FFF761FB08B1DF
:1016D00072B6FEE70CA90F2081E831004FF4A0504C
:1016E0000F904FF48050109005210CA8FFF764FA7A
:1016F000002801D072B6FEE713B030BD403802407A
:10170000007000400248016841F4700101607047B8
:1017100088ED00E010B5806B0021C185C184FFF722
:1017200002FD10BD70B5846B2068406994F83D10CF
:10173000C0F3C0100025212904D118B1E58420464A
:1017400000F08AF82068406994F83E10C0F38010D9
:10175000222904D118B1E585204600F056F8206C06
:1017600040F0100020642046FFF7DDFC70BD10B58E
:101770000146806B09680968C9052FD40021C1851D
:1017800001680C3151E8002F22F4807241E80023F7
:10179000002BF5D10168143151E8002F22F001022D
:1017A00041E80023002BF5D10168143151E8002FE6
:1017B00022F0400241E80023002BF5D1202180F8DF
:1017C0003E10016B012909D101680C3151E8002F4D
:1017D00022F0100241E80023002BF5D1016B012912
:1017E00002D0FFF7A5FE10BD818DFFF79BFC10BD59
:1017F00010B5806B016B012902D0FFF7BFFE10BD51
:10180000818D4908FFF78EFC10BD01680C3151E84D
:10181000002F22F4907241E80023002BF5D10168DB
:10182000143151E8002F22F0010241E80023002B7F
:10183000F5D1016B012909D101680C3151E8002F64
:1018400022F0100241E80023002BF5D1202180F87E
:101850003E1000210163704701680C3151E8002FF0
:1018600022F0C00241E80023002BF5D1202180F8AE
:101870003D10704708B590F83E10222901D0022093
:1018800008BD82684FF480539A4201D1016921B1A9
:10189000816A9A421BD04AB10AE00268816A5268A2
:1018A000C2F308020A80816A891C08E0026972B1E9
:1018B0000268526802F07F020A70816A491C8162E4
:1018C000C18D491E0904090CC18503D019E00268C5
:1018D0005268F1E70168CA6822F02002CA60016814
:1018E000CA6822F48072CA6001684A6922F0010263
:1018F0004A61202180F83E10016B012903D0FFF7D7
:1019000017FE002008BD0021016301680C3151E879
:10191000002F22F0100241E80023002BF5D10168CE
:101920000A68D20602D50A6849680091818DFFF7DE
:10193000F9FBE6E770B5044600680169E26821F446
:101940004051114301612169A068E269084361695E
:10195000114308432168CA6849F20C639A43024361
:10196000CA6020684169A26921F440711143416154
:1019700031492068884202D03049884202D1FFF7BD
:10198000C5F901E0FFF7B2F9E269002319216425E6
:101990003226B2F5004F626828D0A0FB0101930FF8
:1019A0009200FEF761FC0146B0FBF5F06FF0180203
:1019B000504301EB800006EB0010B0FBF5F000F0A7
:1019C000F002B1FBF5F002EB0012B1FBF5F06FF0A5
:1019D0001803584301EB800006EB0010B0FBF5F054
:1019E00000F00F0021681044886070BDA0FB010169
:1019F00092185B41FEF738FC0146B0FBF5F002019E
:101A0000B1FBF5F06FF01803584301EB800006EBD3
:101A1000C000B0FBF5F000F0F80002EB4002B1FBB3
:101A2000F5F0584301EB800006EBC000B0FBF5F089
:101A300000F00700D6E7000000100140001401404C
:101A400038B581628285002513460446056422204C
:101A500084F83E00A26B1C48D063A26B1B48106444
:101A6000A26B1B48D064A06B0A4605652168A06B79
:101A7000091DFEF7CBFE206801684068009084F8DD
:101A80003C50206948B120680C3050E8001F41F4F8
:101A9000807140E80012002AF5D12068143050E827
:101AA000001F41F0010140E80012002AF5D1206832
:101AB000143050E8001F41F0400140E80012002AB5
:101AC000F5D1002038BD00006F170008F11700089D
:101AD000251700080148FFF727BB00001C00002065
:101AE000FEE70907090E002804DB00F1E02080F87A
:101AF0000014704700F00F0000F1E02080F8141D82
:101B000070470000FEF7C6FFFFF7B2FDFFF73AFD92
:101B1000FFF756FDFFF78AFD0A2202490248FFF748
:101B2000F1FCF9E7100000201C0000204FF040708D
:101B3000E1EE100A704700061016000610160000AD
:101B4000000000000000010203040607080900006D
:101B50000000010203040000781B000800000020C0
:101B600010000000C4010008881B000810000020BD
:101B700070070000E00100080100000010000000F4
:081B8000000000000024F40045
:040000050800018965
:00000001FF
